:100000000C9423010C9440010C9440010C94400189
:100010000C9442010C9440010C9440010C9440015A
:100020000C9440010C9440010C9440010C94770115
:100030000C9440010C9440010C9440010C9440013C
:100040000C9440010C9440010C94B2020C944001B9
:100050000C9440010C9440010C9440010C9440011C
:100060000C9440010C94400141542B434950434CA3
:100070004F53453D0041542B5253540D0A004154F7
:100080002B4349505345525645523D0041542B4352
:1000900049504D55583D310D0A0041542B434950AC
:1000A00053454E443D0041542B43574A41505F4312
:1000B00055523D220041542B43574D4F44455F4319
:1000C00055523D003C703E4572726F722C20706C30
:1000D000656173652074727920616761696E3C2F78
:1000E000703E003C68313E5468616E6B20796F75DC
:1000F000213C2F68313E3C703E506C656173652039
:10010000666F6C6C6F772074686520696E737472AB
:10011000756374696F6E732070726F76696465645D
:10012000207769746820796F757220746F756368C1
:100130006C616D7020746F2066696E6973682073DE
:10014000657475703C703E003C68313E57656C6369
:100150006F6D65213C2F68313E3C68343E506C65C4
:1001600061736520656E74657220796F7572206E9B
:100170006574776F726B20696E666F726D617469FA
:100180006F6E20746F20626567696E207573696E8B
:100190006720796F757220746F756368206C616D6C
:1001A00070213C2F68343E3C666F726D2061637431
:1001B000696F6E3D222F69223E3C696E7075742016
:1001C000747970653D227465787422206E616D6566
:1001D0003D22732220706C616365686F6C64657288
:1001E0003D2253534944223E3C696E70757420741D
:1001F0007970653D227465787422206E616D653D6D
:1002000022702220706C616365686F6C6465723D5A
:100210002270617373776F7264223E3C696E7075F1
:100220007420747970653D227375626D6974223E25
:100230003C2F666F726D3E0D0A00383000220D0AA9
:1002400000222C22000011241FBECFEFD4E0DEBF1D
:10025000CDBF11E0A0E0B1E0E4E1FBE002C0059019
:100260000D92AC38B107D9F722E0ACE8B1E001C09B
:100270001D92AA30B207E1F70E94AD010C948805E7
:100280000C9400001F920F920FB60F9211248F93BF
:10029000339908C08091CA01815F8093CA0180911F
:1002A000CA0187BD329908C08091CB01815F8093DC
:1002B000CB018091CB0188BD319909C08091CC01DF
:1002C000815F8093CC018091CC018093B400109227
:1002D000850010928400B19A80916F0082608093B3
:1002E0006F008F910F900FBE0F901F9018951F9267
:1002F0000F920FB60F9211242F933F934F935F935A
:100300006F937F938F939F93AF93BF93EF93FF93DD
:100310008BE491E00E9450054AEC51E063E080E0FC
:1003200090E00E94050589E591E00E945005EFE606
:10033000F0E080818D7F8083FF91EF91BF91AF913D
:100340009F918F917F916F915F914F913F912F91ED
:100350000F900FBE0F901F90189590E080E80FB699
:10036000F89480936100909361000FBE84B5836020
:1003700084BD85B5846085BD84B5806884BD84B541
:10038000806284BD809181008D608093810087E9C7
:1003900098E990938900809388008091B0008360F1
:1003A0008093B0008091B10086608093B10080910D
:1003B000B00080628093B0000E9438050E94A804BB
:1003C0004AEC51E063E080E090E00E94CA04789437
:1003D0008CE891E090934501809344018CEA91E090
:1003E00090934701809346014CE851E06EE180E430
:1003F00090E00E94CA0480918C01882369F04CEA45
:1004000051E06EE180E890E00E94CA048BE08093A6
:10041000AB018CE080934A012FEF81EE94E02150F4
:1004200080409040E1F700C00000C6E08091AB0141
:100430008C30F8F4E091AB018091AB01CE9FF001DC
:100440001124E050FF4FC89FC00111240190F0819A
:10045000E02D64E08E5F9E4F09958091AB018F5F28
:100460008093AB019091AB0180914A019817D1F331
:10047000DDCF8AB188668AB987B1817F87B988B1B3
:100480008E6088B980916800826080936800809156
:100490006C008E6080936C008091CA0187BD809152
:1004A000CB0188BD8091CC018093B400FFCF282F71
:1004B000FC018E2F821B861710F41192FACF08953B
:1004C000282FDB01FC018E2F821B841730F49191C1
:1004D0008D919817C1F380E0089581E00895EF921F
:1004E000FF920F931F93CF93DF933217A0F5E32F63
:1004F000F0E0DC01AE0FBF1FCC91CF3319F0AC910F
:10050000A63239F53196E80FF91FA081A33729F0FB
:10051000E081E037F1F4FA0101C0FB013D5F032FF8
:1005200010E0C32FD0E0DC01AC0FBD1FFC900F2EFC
:10053000F6E2EF2EF02DFE14C1F2FC90FF20A9F29E
:10054000FC90DE01A01BB10BAE0FBF1FFC923F5F02
:10055000E8CF3F5FCACFDF91CF911F910F91FF90FE
:10056000EF9008951F920F920FB60F9211242F93C0
:100570003F934F935F936F937F938F939F93AF932B
:10058000BF93EF93FF938091C6008A3009F084C037
:1005900043E069E771E08EEC91E00E946002909187
:1005A000CD01882381F0923009F4C5C0943009F060
:1005B0006DC080918C01811169C083E08093AB0193
:1005C00090934A01B8C0913009F44AC028F09230A3
:1005D00069F1933089F0AFC046E067E671E08EECD8
:1005E00091E00E946002882309F4A5C08091AB01CC
:1005F00081508093AB019FC045E06EE671E08EECC8
:1006000091E00E946002882309F495C01092AB012A
:1006100081E080934A016EE18CE891E00E945702EC
:100620006EE18CEA91E00E94570285C048E064E7E1
:1006300071E08EEC91E00E946002882309F47BC097
:1006400080914A018F5F80934A018DE791E09093FA
:1006500023018093220190931D0180931C016BC0A4
:1006600041E06BE771E08EEC91E00E94600288232C
:1006700009F461C080911C0190911D01863691059D
:1006800009F459C08D57914009F455C080914A0131
:100690008F5F80934A014FC09091CD01913009F056
:1006A00052C0803209F059C090918C01911155C00F
:1006B0009091AC01911151C08091CE018B3279F4AF
:1006C0002091D30188E491E02093480190931B018D
:1006D00080931A0190932701809326012CC080916A
:1006E000CE018F3241F58091CF01811103C088E6A0
:1006F00090E019C08091CF01893661F42CE34CEA77
:1007000051E06CE871E08EEC91E00E946F0289E6A6
:1007100090E009C08091CF01863619F486E690E01A
:1007200002C085E690E090931D0180931C01909398
:100730002301809322011092AA016CE38EEC91E0D8
:100740000E94570215C0923041F48E3331F48091EB
:100750004A018F5F80934A010BC0E091AA01F0E04B
:10076000E253FE4F80838091AA018F5F8093AA019C
:10077000FF91EF91BF91AF919F918F917F916F9179
:100780005F914F913F912F910F900FBE0F901F904F
:100790001895EF92FF920F931F93CF93DF931F92C1
:1007A000CDB7DEB7082F7C018E2D801B861770F425
:1007B000F7011491112351F0812F69830E9449059B
:1007C000FFEFEF1AFF0A69811A3071F70F90DF917E
:1007D000CF911F910F91FF90EF900895CF93DF93EA
:1007E000EC016FE085EB90E00E94C903888199815C
:1007F0000E94500586E591E00E9450051092CD01BF
:10080000DF91CF910895CF93DF93EC016FE086EAFB
:1008100090E00E94C903888199810E94500564E09C
:1008200081E492E00E94C9038A819B810E94500565
:1008300064E08DE392E00E94C90383E08093CD01E0
:10084000DF91CF9108956EE08CE890E00C94C9039D
:10085000CF93DF93EC016EE08EE790E00E94C90336
:10086000888199810E94500589E891E00E94500595
:1008700063E08AE392E00E94C90386E591E0DF919C
:10088000CF910C94500569E085E790E00C94C90382
:1008900081E08093CD010895CF93DF93EC016CE06C
:1008A0008AE990E00E94C903888199810E945005DD
:1008B00089E891E00E9450058A819B8188369105E4
:1008C00011F482EF06C08936910511F485E601C066
:1008D0008FE10E94630586E591E00E94500582E069
:1008E0008093CD01DF91CF910895FC0182819381A6
:1008F0008836910521F462EF88E491E00DC08936D5
:10090000910521F465E683EE90E006C086369105F8
:1009100029F06FE184EC90E00E94C90386E591E044
:100920000C945005CF93DF93EC016DE088E690E0E6
:100930000E94C903888199810E94500586E591E053
:100940000E94500584E08093CD01DF91CF910895FE
:1009500084B18C6284B985B1846185B98CB58365B5
:100960008CBD08958EBD0DB407FEFDCF08952A9865
:1009700085E00E94B20480E00E94B2042A9A8EB5FB
:100980000895CF93C82F892F0E94B2048C2FCF9146
:100990000C94B204CF92DF92FF920F931F93CF93E8
:1009A000DF9300D0CDB7DEB76C01062F2A9883E025
:1009B00049835A830E94B204C6010E94C10449813E
:1009C000F42EC42E5A81D52E1C2D1F19101758F441
:1009D00080E00E94B2048EB58F3F29F08EB5F601FB
:1009E00081936F01F1CF2A9A812F0F900F90DF91A1
:1009F000CF911F910F91FF90DF90CF9008952A988B
:100A000086E00E94B2042A9A0895EF92FF920F9313
:100A10001F93CF93DF9300D0CDB7DEB77C01162FA5
:100A200049835A830E94FF042A9882E00E94B204FC
:100A3000C7010E94C1044981042FE42E5A81F52E7A
:100A40008E2D801B811730F4F70181917F010E9468
:100A5000B204F6CF2A9A0E94B70480FDFCCF0F9013
:100A60000F90DF91CF911F910F91FF90EF9008951C
:100A70001092C50083E38093C400E0ECF0E0808135
:100A80008D7F808388E98093C10086E08093C200D7
:100A900008959091C00095FFFCCF8093C600089503
:100AA0001F93CF93DF93EC0110E0FE01E10FF11DE6
:100AB0008081882321F00E9449051F5FF6CFDF91D6
:100AC000CF911F910895CF93C82F64E60E947C05B3
:100AD000805D0E9449052AE08C2F622F0E947C05D0
:100AE000C92F0E947C0580E3890F0E94490580E39D
:100AF0008C0FCF910C944905991B79E004C0991F84
:100B0000961708F0961B881F7A95C9F78095089567
:040B1000F894FFCF87
:100B1400EE037F0100002304580100002804810132
:100B240000004804580100004C0458017D0175047C
:100B340058017D01920458010000EE038101000078
:100B4400280483010000430458010000EE038101DE
:100B5400000003048501870130000157726974693C
:100B64006E672E2E2E200D0A005772697474656EFE
:100B74002E2E2E200D0A004552524F520D00464192
:100B8400494C0D0053454E44204F4B0D0078003224
:0C0B94000031003000730070002C0000E5
:00000001FF
