:100000000C9423010C9440010C9440010C94400189
:100010000C9442010C9440010C9440010C9440015A
:100020000C9440010C9440010C9440010C94770115
:100030000C9440010C9440010C9440010C9440013C
:100040000C9440010C9440010C94D7020C94400194
:100050000C9440010C9440010C9440010C9440011C
:100060000C9440010C94400141542B434950434CA3
:100070004F53453D0041542B5253540D0A004154F7
:100080002B4349505345525645523D0041542B4352
:1000900049504D55583D310D0A0041542B434950AC
:1000A00053454E443D0041542B43574A41505F4312
:1000B00055523D220041542B43574D4F44455F4319
:1000C00055523D003C703E4572726F722C20706C30
:1000D000656173652074727920616761696E3C2F78
:1000E000703E003C68313E5468616E6B20796F75DC
:1000F000213C2F68313E3C703E506C656173652039
:10010000666F6C6C6F772074686520696E737472AB
:10011000756374696F6E732070726F76696465645D
:10012000207769746820796F757220746F756368C1
:100130006C616D7020746F2066696E6973682073DE
:10014000657475703C703E003C68313E57656C6369
:100150006F6D65213C2F68313E3C68343E506C65C4
:1001600061736520656E74657220796F7572206E9B
:100170006574776F726B20696E666F726D617469FA
:100180006F6E20746F20626567696E207573696E8B
:100190006720796F757220746F756368206C616D6C
:1001A00070213C2F68343E3C666F726D2061637431
:1001B000696F6E3D222F69223E3C696E7075742016
:1001C000747970653D227465787422206E616D6566
:1001D0003D22732220706C616365686F6C64657288
:1001E0003D2253534944223E3C696E70757420741D
:1001F0007970653D227465787422206E616D653D6D
:1002000022702220706C616365686F6C6465723D5A
:100210002270617373776F7264223E3C696E7075F1
:100220007420747970653D227375626D6974223E25
:100230003C2F666F726D3E0D0A00383000220D0AA9
:1002400000222C22000011241FBECFEFD4E0DEBF1D
:10025000CDBF11E0A0E0B1E0E2E8FBE002C0059014
:100260000D92AE37B107D9F721E0AEE7B1E001C09A
:100270001D92AC3FB207E1F70E94B5010C94BF0597
:100280000C9400001F920F920FB60F9211248F93BF
:10029000339908C08091BC01815F8093BC0180913B
:1002A000BC0187BD329908C08091BD01815F8093F8
:1002B000BD018091BD0188BD319909C08091BE0109
:1002C000815F8093BE018091BE018093B400109243
:1002D000850010928400B19A80916F0082608093B3
:1002E0006F008F910F900FBE0F901F9018951F9267
:1002F0000F920FB60F9211242F933F934F935F935A
:100300006F937F938F939F93AF93BF93EF93FF93DD
:100310008BE491E00E9487054CEB51E063E080E0C4
:1003200090E00E943C058091BC010E949A0580915A
:10033000BD010E949A058091BE010E949A05EFE6D8
:10034000F0E080818D7F8083FF91EF91BF91AF912D
:100350009F918F917F916F915F914F913F912F91DD
:100360000F900FBE0F901F90189590E080E80FB689
:10037000F89480936100909361000FBE84B5836010
:1003800084BD85B5846085BD84B5806884BD84B531
:10039000806284BD809181008D608093810087E9B7
:1003A00098E990938900809388008091B0008360E1
:1003B0008093B0008091B10086608093B1008091FD
:1003C000B00080628093B0000E946F050E94DF043D
:1003D0004CEB51E063E080E090E00E9401057894EE
:1003E0008EE791E090934501809344018EE991E07E
:1003F00090934701809346014EE751E06EE180E41F
:1004000090E00E94010580917E01882369F04EE909
:1004100051E06EE180E890E00E9401058BE080935E
:100420009D018CE080934A012FEF81EE94E02150F2
:1004300080409040E1F700C00000C6E080919D013F
:100440008C30F8F4E0919D0180919D01CE9FF001E8
:100450001124E050FF4FC89FC00111240190F0818A
:10046000E02D64E08E5F9E4F099580919D018F5F26
:1004700080939D0190919D0180914A019817D1F33D
:10048000DDCF4EE751E06EE180E490E00E943C0554
:100490004EE951E06EE180E890E00E943C058AB1AF
:1004A00088668AB987B1817F87B988B18E6088B93B
:1004B0008091BC010E949A058091BD010E949A051D
:1004C0008091BE010E949A058091BC0187BD8091F8
:1004D000BD0188BD8091BE018093B400F8948091E5
:1004E000680082608093680080916C008E608093C9
:1004F0006C00D99A7894FFCF282FFC018E2F821B95
:10050000861710F41192FACF0895282FDB01FC0111
:100510008E2F821B841730F491918D919817C1F31F
:1005200080E0089581E00895EF92FF920F931F936A
:10053000CF93DF933217A0F5E32FF0E0DC01AE0F8D
:10054000BF1FCC91CF3319F0AC91A63239F531965B
:10055000E80FF91FA081A33729F0E081E037F1F41B
:10056000FA0101C0FB013D5F032F10E0C32FD0E073
:10057000DC01AC0FBD1FFC900F2EF6E2EF2EF02D2C
:10058000FE14C1F2FC90FF20A9F2FC90DE01A01B3A
:10059000B10BAE0FBF1FFC923F5FE8CF3F5FCACFEA
:1005A000DF91CF911F910F91FF90EF9008951F92CF
:1005B0000F920FB60F9211242F933F934F935F9397
:1005C0006F937F938F939F93AF93BF93EF93FF931B
:1005D0008091C6008A3009F087C043E06BE671E085
:1005E00080EC91E00E9485029091BF01882399F0F0
:1005F000913008F473C0933008F4C5C0943009F00A
:100600006DC080917E01811169C083E080939D015E
:1006100090934A01B8C0913009F44AC028F0923052
:1006200069F1933089F0AFC046E069E571E080EC94
:1006300091E00E948502882309F4A5C080919D0164
:10064000815080939D019FC045E060E671E080ECA1
:1006500091E00E948502882309F495C010929D01C3
:1006600081E080934A016EE18EE791E00E947C0276
:100670006EE18EE991E00E947C0285C048E066E66A
:1006800071E080EC91E00E948502882309F47BC030
:1006900080914A018F5F80934A018FE691E09093A9
:1006A00023018093220190931D0180931C016BC054
:1006B00041E06DE671E080EC91E00E9485028823C4
:1006C00009F461C080911C0190911D01863691054D
:1006D00009F459C08F56914009F455C080914A01E0
:1006E0008F5F80934A014FC09091BF01913009F014
:1006F00052C0803209F059C090917E01911155C0CD
:1007000090919E01911151C08091C0018B3279F47A
:100710002091C50188E491E02093480190931B014A
:1007200080931A0190932701809326012CC0809119
:10073000C0018F3241F58091C101811103C088E66B
:1007400090E019C08091C101893661F42CE34EE933
:1007500051E06EE771E080EC91E00E94940289E63E
:1007600090E009C08091C101863619F486E690E0D8
:1007700002C085E690E090931D0180931C01909348
:1007800023018093220110929C016CE380EC91E0A4
:100790000E947C0215C0923041F48E3331F4809176
:1007A0004A018F5F80934A010BC0E0919C01F0E009
:1007B000E054FE4F808380919C018F5F80939C0169
:1007C000FF91EF91BF91AF919F918F917F916F9129
:1007D0005F914F913F912F910F900FBE0F901F90FF
:1007E0001895EF92FF920F931F93CF93DF931F9271
:1007F000CDB7DEB7082F7C018E2D801B861770F4D5
:10080000F7011491112351F0812F69830E94800513
:10081000FFEFEF1AFF0A69811A3071F70F90DF912D
:10082000CF911F910F91FF90EF900895CF93DF9399
:10083000EC016FE085EB90E00E94F10388819981E3
:100840000E94870586E591E00E9487051092BF010E
:10085000DF91CF910895CF93DF93EC016FE086EAAB
:1008600090E00E94F103888199810E94870564E0ED
:1008700081E492E00E94F1038A819B810E948705B6
:1008800064E08DE392E00E94F10383E08093BF0176
:10089000DF91CF9108956EE08CE890E00C94F10325
:1008A000CF93DF93EC016EE08EE790E00E94F103BE
:1008B000888199810E948705888199818557914017
:1008C00049F08BE791E00E94870563E08AE392E0BC
:1008D0000E94F10386E591E0DF91CF910C948705AA
:1008E00069E085E790E00E94F1032FEF84E39CE04C
:1008F000215080409040E1F700C00000089581E061
:100900008093BF010895CF93DF93EC016CE08AE9F7
:1009100090E00E94F103888199810E9487058BE70E
:1009200091E00E9487058A819B818836910511F4A8
:1009300082EF06C08936910511F485E601C08FE18A
:100940000E949A0586E591E00E94870582E08093E7
:10095000BF01DF91CF910895FC0182819381883698
:10096000910521F462EF88E491E00DC0893691058C
:1009700021F465E683EE90E006C08636910529F005
:100980006FE184EC90E00E94F10386E591E00C9425
:100990008705CF93DF93EC016DE088E690E00E943D
:1009A000F103888199810E94870586E591E00E9484
:1009B000870584E08093BF01DF91CF91089584B1D2
:1009C0008C6284B985B1846185B98CB583658CBD31
:1009D00008958EBD0DB407FEFDCF08952A9885E0D9
:1009E0000E94E90480E00E94E9042A9A8EB50895E5
:1009F000CF93C82F892F0E94E9048C2FCF910C949C
:100A0000E904CF92DF92FF920F931F93CF93DF936E
:100A100000D0CDB7DEB76C01062F2A9883E049835A
:100A20005A830E94E904C6010E94F8044981F42E09
:100A3000C42E5A81D52E1C2D1F19101758F480E092
:100A40000E94E9048EB58F3F29F08EB5F60181939F
:100A50006F01F1CF2A9A812F0F900F90DF91CF91E4
:100A60001F910F91FF90DF90CF9008952A9886E014
:100A70000E94E9042A9A0895EF92FF920F931F9320
:100A8000CF93DF9300D0CDB7DEB77C01162F49831B
:100A90005A830E9436052A9882E00E94E904C70121
:100AA0000E94F8044981042FE42E5A81F52E8E2DE0
:100AB000801B811730F4F70181917F010E94E904C6
:100AC000F6CF2A9A0E94EE0480FDFCCF0F900F9083
:100AD000DF91CF911F910F91FF90EF9008951092A9
:100AE000C50083E38093C400E0ECF0E080818D7F5B
:100AF000808388E98093C10086E08093C2000895D6
:100B00009091C00095FFFCCF8093C60008951F937D
:100B1000CF93DF93EC0110E0FE01E10FF11D808126
:100B2000882321F00E9480051F5FF6CFDF91CF91CF
:100B30001F910895CF93C82F64E60E94B305805D8E
:100B40000E9480052AE08C2F622F0E94B305C92FD6
:100B50000E94B30580E3890F0E94800580E38C0F1B
:100B6000CF910C948005991B79E004C0991F9617CA
:100B700008F0961B881F7A95C9F780950895F89418
:020B8000FFCFA5
:100B82001604710100004B04580100005004730167
:100B920000007F0458010000830458016F01AC0477
:100BA20058016F01C90458010000160473010000C6
:100BB200500475010000700458010000160473010E
:100BC20000002B04770179013000015772697469C2
:100BD2006E672E2E2E200D0A004552524F520D00E6
:100BE2004641494C0D0053454E44204F4B0D007871
:0E0BF20000320031003000730070002C000053
:00000001FF
