:100000000C948A010C94A7010C94A7010C94A701ED
:100010000C94A9010C94A7010C94A7010C94A701BE
:100020000C94A7010C94A7010C94A7010C94F50261
:100030000C943B030C94A7010C94A7010C94A7010A
:100040000C94A7010C94A7010C94FA030C94A7013B
:100050000C94A7010C94A7010C94A7010C94A70180
:100060000C94A7010C94A70141542B434950434CD5
:100070004F53453D0041542B434950535441525432
:100080003D22544350222C2268747470733A2F2FEF
:1000900075732D63656E7472616C312D696F746C4C
:1000A000616D702D726D2E636C6F756466756E6315
:1000B00074696F6E732E6E6574222C38300D0A00D1
:1000C00041542B5253540D0A0041542B4349505371
:1000D00045525645523D0041542B4349504D5558C9
:1000E0003D310D0A0041542B43495053454E443D88
:1000F0000041542B43574A41505F4355523D220023
:1001000041542B43574D4F44455F4355523D003CAE
:10011000703E4572726F722C20706C656173652041
:1001200074727920616761696E3C2F703E003C6893
:10013000313E5468616E6B20796F75213C2F6831B8
:100140003E3C703E506C6561736520666F6C6C6FF1
:10015000772074686520696E737472756374696F53
:100160006E732070726F7669646564207769746855
:1001700020796F757220746F7563686C616D702083
:10018000746F2066696E6973682073657475703C5E
:10019000703E003C68313E57656C636F6D65213C75
:1001A0002F68313E3C68343E506C65617365206554
:1001B0006E74657220796F7572206E6574776F72D8
:1001C0006B20696E666F726D6174696F6E20746FFB
:1001D00020626567696E207573696E6720796F7537
:1001E0007220746F756368206C616D70213C2F689C
:1001F000343E3C666F726D20616374696F6E3D22A0
:100200002F69223E3C696E70757420747970653D6B
:10021000227465787422206E616D653D2273222000
:10022000706C616365686F6C6465723D22535349FD
:1002300044223E3C696E70757420747970653D226D
:100240007465787422206E616D653D227022207085
:100250006C616365686F6C6465723D227061737375
:10026000776F7264223E3C696E7075742074797089
:10027000653D227375626D6974223E3C2F666F7214
:100280006D3E0D0A00383000436F6E74656E742D3C
:100290004C656E6774683A20300D0A00486F7374BD
:1002A0003A2075732D63656E7472616C312D696FC0
:1002B000746C616D702D726D2E636C6F75646675F4
:1002C0006E6374696F6E732E6E65740D0A0020483C
:1002D0005454502F312E300D0A0047455420005001
:1002E0004F5354200026623D0026673D0026723D94
:1002F000002F736574436F6C6F723F733D002F67FF
:100300006574436F6C6F723F733D00220D0A0022CB
:100310002C22000011241FBECFEFD4E0DEBFCDBFE2
:1003200011E0A0E0B1E0E8EDFFE002C005900D9221
:10033000AC39B107D9F722E0ACE9B1E001C01D92B8
:10034000A432B207E1F70E94E8010C94EA070C948A
:1003500000001F920F920FB60F9211248F9386E028
:100360008093E401329908C08091E101815F80931C
:10037000E1018091E10188BD319909C08091E201DC
:10038000815F8093E2018091E2018093B400339910
:1003900008C08091E301815F8093E3018091E301D4
:1003A00087BD109285001092840086B3866086BB5C
:1003B00080916F00826080936F0080916F008B7FCF
:1003C00080936F008F910F900FBE0F901F90189524
:1003D00090E080E80FB6F8948093610090936100FC
:1003E0000FBE84B5836084BD85B5846085BD84B54A
:1003F000806884BD84B5806284BD809181008D60F9
:100400008093810080E197E2909389008093880037
:100410008091B00083608093B0008091B1008660CD
:100420008093B1008091B00080628093B0000E9400
:100430009A070E940A07219A87B1817F87B988B1FC
:100440008E6088B978948CE991E090935D018093F7
:100450005C018FEB91E090935F0180935E014CE92A
:1004600051E06EE180E490E00E942C0780919C01B5
:10047000882369F04FEB51E06EE180E890E00E9444
:100480002C078BE08093BB018CE0809362012FEFFF
:1004900081EE94E0215080409040E1F700C00000E0
:1004A000C6E08091BB018C3040F58091BB018B3060
:1004B00029F480918000806480938000E091BB01EA
:1004C0008091BB01CE9FF0011124E85EFE4FC89FD2
:1004D000C00111240190F081E02D64E0865E9E4F02
:1004E00009958091BB018F5F8093BB019091BB0107
:1004F000809162019817D1F3D4CF1092BB0181E0B3
:100500008093620187E08093E40187E690E0909316
:100510000301809302014CE951E06EE180E490E038
:100520000E9467074FEB51E06EE180E890E00E9487
:100530006707809180008F7B8093800087E998E92E
:1005400090938900809388008EE89BE590938B00C0
:1005500080938A00F894809168008260809368009C
:1005600080916C008E6080936C00D99A78948AB1E7
:1005700088668AB9C6E09091BB01809162019817A4
:1005800000F58091E4018630E1F08091BB01843078
:10059000C0F4E091BB018091BB01CE9FF00111241A
:1005A000E050FF4FC89FC00111240190F081E02D61
:1005B00064E08E5F9E4F09958091BB018F5F8093B1
:1005C000BB018091E10188BD8091E2018093B4007C
:1005D0008091E30187BDCFCF282FFC018E2F821B96
:1005E000861710F41192FACF08951F920F920FB64A
:1005F0000F9211242F933F934F935F936F937F93A9
:100600008F939F93AF93BF93EF93FF93EFE6F0E049
:100610008081897F808387E08093E40180E790E098
:10062000909303018093020181EE91E09093090180
:100630008093080190930F0180930E011092BB01EB
:1006400081E0809362011092BA016CE385EE91E043
:100650000E94EC02FF91EF91BF91AF919F918F911A
:100660007F916F915F914F913F912F910F900FBEAE
:100670000F901F9018951F920F920FB60F92112492
:100680002F933F934F935F936F937F938F939F939A
:10069000AF93BF93EF93FF93EFE6F0E080818B7F02
:1006A000808387E08093E40187E690E090930301E4
:1006B000809302011092BB0181E08093620110924D
:1006C000BA016CE385EE91E00E94EC02FF91EF919C
:1006D000BF91AF919F918F917F916F915F914F915A
:1006E0003F912F910F900FBE0F901F901895282FBC
:1006F000DB01FC018E2F821B841730F491918D91C8
:100700009817C1F380E0089581E00895EF92FF9279
:100710000F931F93CF93DF933217A0F5E32FF0E0F1
:10072000DC01AE0FBF1FCC91CF3319F0AC91A632D4
:1007300039F53196E80FF91FA081A33729F0E08140
:10074000E037F1F4FA0101C0FB013D5F032F10E037
:10075000C32FD0E0DC01AC0FBD1FFC900F2EF6E2E2
:10076000EF2EF02DFE14C1F2FC90FF20A9F2FC90B8
:10077000DE01A01BB10BAE0FBF1FFC923F5FE8CFA5
:100780003F5FCACFDF91CF911F910F91FF90EF9004
:100790000895CF92DF92FF920F931F93CF93DF9331
:1007A0001F92CDB7DEB76C0100E00617C9F00F5FEE
:1007B000902F11E0812F961739F0880F182F110F05
:1007C000110F180F9F5FF6CF69830E94C507F601CE
:1007D00091916F019053919FF00C11246981E5CFA5
:1007E0008F2D0F90DF91CF911F910F91FF90DF9090
:1007F000CF9008951F920F920FB60F9211242F934E
:100800003F934F935F936F937F938F939F93AF9398
:10081000BF93EF93FF938091C6009091E4019630CF
:1008200009F486C18A3009F019C143E065E771E037
:1008300085EE91E00E9477039091E401882311F105
:100840009430B1F028F49150923008F454C18AC029
:10085000953009F087C08091020190910301909337
:100860000B0180930A0190931101809310017AC0CB
:1008700080919C01811176C083E08093BB019093AD
:10088000620139C1913009F44FC028F0923091F1E2
:100890009330B1F030C146E063E671E085EE91E05F
:1008A0000E947703882309F426C18091E0018F5FBD
:1008B0008093E0018091BB0181508093BB011BC1FB
:1008C00045E06AE671E085EE91E00E9477038823B7
:1008D00009F411C11092BB0181E0809362016EE1C5
:1008E0008CE991E00E94EC026EE18FEB91E00E94B6
:1008F000EC0201C148E060E771E085EE91E00E9402
:100900007703882309F4F7C0809162018F5F809399
:10091000620189E791E090933B0180933A019093C3
:10092000350180933401E7C046E063E671E085EE6F
:1009300091E00E947703811115C041E067E771E003
:1009400085EE91E00E947703882391F08091340135
:10095000909135018636910509F4CDC089579140B3
:1009600009F4C9C0809162018F5F80936201C3C0A6
:1009700042E06BE771E085EE91E00E947703882307
:1009800069F08091E7018093BC018091E801809338
:10099000BD018091E9018093BE01ADC042E06EE7E8
:1009A00071E085EE91E00E947703882369F08091E1
:1009B000E701809321028091E801809322028091D7
:1009C000E9018093230297C042E061E871E085EE7F
:1009D00091E00E947703882369F08091E70180937A
:1009E000DD018091E8018093DE018091E90180932F
:1009F000DF0181C046E064E871E085EE91E00E948D
:100A00007703882309F477C0109285001092840040
:100A100086B3866086BB80916F00846080936F0090
:100A200080910201909103018736910509F063C01E
:100A300063E08CEB91E00E94C9038093E10163E0E5
:100A400081E292E00E94C9038093E20163E08DEDB0
:100A500091E00E94C9038093E3014DC0913009F0F9
:100A600052C0803209F059C090919C01911155C03B
:100A70009091BF01911151C08091E5018B3279F4C1
:100A80002091EA0180E691E0209360019093330188
:100A90008093320190933F0180933E012CC080915E
:100AA000E5018F3241F58091E601811103C088E6AE
:100AB00090E019C08091E601893661F42CE34FEB98
:100AC00051E06CE971E085EE91E00E94860389E6D1
:100AD00090E009C08091E601863619F486E690E040
:100AE00002C085E690E090933501809334019093A5
:100AF0003B0180933A011092BA016CE385EE91E0DC
:100B00000E94EC0215C0923041F48E3331F4809192
:100B100062018F5F809362010BC0E091BA01F0E047
:100B2000EB51FE4F80838091BA018F5F8093BA01B1
:100B3000FF91EF91BF91AF919F918F917F916F91B5
:100B40005F914F913F912F910F900FBE0F901F908B
:100B50001895EF92FF920F931F93CF93DF931F92FD
:100B6000CDB7DEB7082F7C018E2D801B861770F461
:100B7000F7011491112351F0812F69830E94AB0773
:100B8000FFEFEF1AFF0A69811A3071F70F90DF91BA
:100B9000CF911F910F91FF90EF900895CF93DF9326
:100BA000EC016FE080E091E00E94A90588819981C5
:100BB0000E94B20783E991E00E94B2071092E4011B
:100BC000DF91CF910895CF93DF93EC016FE081EF38
:100BD00090E00E94A905888199810E94B20764E093
:100BE0008FE093E00E94A9058A819B810E94B20751
:100BF00064E08BE093E00E94A90583E08093E40128
:100C0000DF91CF9108956EE087ED90E00C94A905F7
:100C1000CF93DF93EC016EE089EC90E00E94A90590
:100C2000888199810E94B207888199818959914070
:100C300049F086E991E00E94B20763E085E892E01E
:100C40000E94A90583E991E0DF91CF910C94B2074E
:100C500069E080EC90E00E94A9052FEF84E39CE01E
:100C6000215080409040E1F700C00000089581E0ED
:100C70008093E40108956BE485E790E00E94A90564
:100C800085E08093E4010895CF93DF93EC016CE05D
:100C900085EE90E00E94A9058A819B8187369105A7
:100CA00011F486E61AC08037910511F48AE715C061
:100CB000888199810E94B20786E991E00E94B2077B
:100CC0008A819B818836910511F482EF06C08936AE
:100CD000910511F485E601C08FE10E94C50783E903
:100CE00091E00E94B20782E08093E401DF91CF910E
:100CF0000895CF93DF93EC012A813B81273631059C
:100D000081F465E08AED92E00E94A9056DE08EEF26
:100D100092E00E94A90588E991E00E94B20781E073
:100D200031C02037310509F043C066E08FED92E015
:100D30000E94A9056DE081EF92E00E94A90588E973
:100D400091E00E94B20781E00E94C50764E08DEE49
:100D500092E00E94A905E881F98180810E94C5077F
:100D600064E089EE92E00E94A905E881F981818121
:100D70000E94C50764E085EE92E00E94A905E88123
:100D8000F98182810E94C5076CE08EEC92E00E949E
:100D9000A90562E38CE992E00E94A90564E188E874
:100DA00092E00E94A90583E991E00E94B20716C073
:100DB0002836310521F462EF83E991E00DC0293630
:100DC000310521F465E68EE291E006C02636310554
:100DD00029F06FE18FE091E00E94A90583E991E09D
:100DE000DF91CF910C94B207CF93DF93EC016DE0CC
:100DF00088E690E00E94A905888199810E94B20747
:100E000083E991E00E94B20784E08093E401DF91DE
:100E1000CF91089584B18C6284B985B1846185B91C
:100E20008CB583658CBD08958EBD0DB407FEFDCFD6
:100E300008952A9885E00E94140780E00E94140714
:100E40002A9A8EB50895CF93C82F892F0E94140730
:100E50008C2FCF910C941407CF92DF92FF920F93B7
:100E60001F93CF93DF9300D0CDB7DEB76C01062F71
:100E70002A9883E049835A830E941407C6010E947E
:100E800023074981F42EC42E5A81D52E1C2D1F19FB
:100E9000101758F480E00E9414078EB58F3F29F098
:100EA0008EB5F60181936F01F1CF2A9A812F0F90B1
:100EB0000F90DF91CF911F910F91FF90DF90CF9016
:100EC00008952A9886E00E9414072A9A0895EF92BE
:100ED000FF920F931F93CF93DF9300D0CDB7DEB770
:100EE0007C01162F49835A830E9461072A9882E069
:100EF0000E941407C7010E9423074981042FE42E92
:100F00005A81F52E8E2D801B811730F4F7018191C7
:100F10007F010E941407F6CF2A9A0E94190780FDCC
:100F2000FCCF0F900F90DF91CF911F910F91FF9009
:100F3000EF9008951092C50083E38093C400E0EC25
:100F4000F0E080818D7F808388E98093C10086E016
:100F50008093C20008959091C00095FFFCCF8093CC
:100F6000C60008951F93CF93DF93EC0110E0FE01BC
:100F7000E10FF11D8081882321F00E94AB071F5FE4
:100F8000F6CFDF91CF911F910895CF93C82F64E6DC
:100F90000E94DE07805D0E94AB072AE08C2F622F43
:100FA0000E94DE07C92F0E94DE0780E3890F0E949E
:100FB000AB0780E38C0FCF910C94AB07991B79E0C2
:100FC00004C0991F961708F0961B881F7A95C9F7D9
:080FD00080950895F894FFCF0D
:100FD8003B069501000044069501670079069501D6
:100FE8006700370695010000CE058B010000030657
:100FF8009501000008068D010000370695010000E4
:10100800440695017901790695017901F40695015F
:101018000000CE058D010000080699010000280691
:1010280095010000CE058D010000E3058F019101B7
:101038003000014552524F520D004641494C0D00B7
:1010480053454E44204F4B0D007800722000672016
:1010580000622000434C4F53454400320031007376
:0C1068000070000D0A002C003030000069
:00000001FF
