:100000000C9423010C9440010C9440010C94400189
:100010000C9442010C9440010C9440010C9440015A
:100020000C9440010C9440010C9440010C94770115
:100030000C9440010C9440010C9440010C9440013C
:100040000C9440010C9440010C94B2020C944001B9
:100050000C9440010C9440010C9440010C9440011C
:100060000C9440010C94400141542B434950434CA3
:100070004F53453D0041542B5253540D0A004154F7
:100080002B4349505345525645523D0041542B4352
:1000900049504D55583D310D0A0041542B434950AC
:1000A00053454E443D0041542B43574A41505F4312
:1000B00055523D220041542B43574D4F44455F4319
:1000C00055523D003C703E4572726F722C20706C30
:1000D000656173652074727920616761696E3C2F78
:1000E000703E003C68313E5468616E6B20796F75DC
:1000F000213C2F68313E3C703E506C656173652039
:10010000666F6C6C6F772074686520696E737472AB
:10011000756374696F6E732070726F76696465645D
:10012000207769746820796F757220746F756368C1
:100130006C616D7020746F2066696E6973682073DE
:10014000657475703C703E003C68313E57656C6369
:100150006F6D65213C2F68313E3C68343E506C65C4
:1001600061736520656E74657220796F7572206E9B
:100170006574776F726B20696E666F726D617469FA
:100180006F6E20746F20626567696E207573696E8B
:100190006720796F757220746F756368206C616D6C
:1001A00070213C2F68343E3C666F726D2061637431
:1001B000696F6E3D222F69223E3C696E7075742016
:1001C000747970653D227465787422206E616D6566
:1001D0003D22732220706C616365686F6C64657288
:1001E0003D2253534944223E3C696E70757420741D
:1001F0007970653D227465787422206E616D653D6D
:1002000022702220706C616365686F6C6465723D5A
:100210002270617373776F7264223E3C696E7075F1
:100220007420747970653D227375626D6974223E25
:100230003C2F666F726D3E0D0A00383000220D0AA9
:1002400000222C22000011241FBECFEFD4E0DEBF1D
:10025000CDBF11E0A0E0B1E0ECE4FBE002C005900E
:100260000D92AA38B107D9F722E0AAE8B1E001C09F
:100270001D92A830B207E1F70E94AD010C94A405CD
:100280000C9400001F920F920FB60F9211248F93BF
:10029000339908C08091C801815F8093C801809123
:1002A000C80187BD329908C08091C901815F8093E0
:1002B000C9018091C90188BD319909C08091CA01E5
:1002C000815F8093CA018091CA018093B40010922B
:1002D000850010928400B19A80916F0082608093B3
:1002E0006F008F910F900FBE0F901F9018951F9267
:1002F0000F920FB60F9211242F933F934F935F935A
:100300006F937F938F939F93AF93BF93EF93FF93DD
:100310008BE491E00E946C0548EC51E063E080E0E2
:1003200090E00E94210589E591E00E946C05EFE6CE
:10033000F0E080818D7F8083FF91EF91BF91AF913D
:100340009F918F917F916F915F914F913F912F91ED
:100350000F900FBE0F901F90189590E080E80FB699
:10036000F89480936100909361000FBE84B5836020
:1003700084BD85B5846085BD84B5806884BD84B541
:10038000806284BD809181008D608093810087E9C7
:1003900098E990938900809388008091B0008360F1
:1003A0008093B0008091B10086608093B10080910D
:1003B000B00080628093B0000E9454050E94C40483
:1003C00048EC51E063E080E090E00E94E60478941D
:1003D0008AE891E090934501809344018AEA91E094
:1003E00090934701809346014AE851E06EE180E432
:1003F00090E00E94E60480918A01882369F04AEA2D
:1004000051E06EE180E890E00E94E6048BE080938A
:10041000A9018CE080934A012FEF81EE94E02150F6
:1004200080409040E1F700C00000C6E08091A90143
:100430008C30F8F4E091A9018091A901CE9FF001E0
:100440001124E050FF4FC89FC00111240190F0819A
:10045000E02D64E08E5F9E4F09958091A9018F5F2A
:100460008093A9019091A90180914A019817D1F335
:10047000DDCF8AB188668AB987B1817F87B988B1B3
:100480008E6088B980916800826080936800809156
:100490006C008E6080936C008091C80187BD809154
:1004A000C90188BD8091CA018093B400FFCF282F75
:1004B000FC018E2F821B861710F41192FACF08953B
:1004C000282FDB01FC018E2F821B841730F49191C1
:1004D0008D919817C1F380E0089581E00895EF921F
:1004E000FF920F931F93CF93DF933217A0F5E32F63
:1004F000F0E0DC01AE0FBF1FCC91CF3319F0AC910F
:10050000A63239F53196E80FF91FA081A33729F0FB
:10051000E081E037F1F4FA0101C0FB013D5F032FF8
:1005200010E0C32FD0E0DC01AC0FBD1FFC900F2EFC
:10053000F6E2EF2EF02DFE14C1F2FC90FF20A9F29E
:10054000FC90DE01A01BB10BAE0FBF1FFC923F5F02
:10055000E8CF3F5FCACFDF91CF911F910F91FF90FE
:10056000EF9008951F920F920FB60F9211242F93C0
:100570003F934F935F936F937F938F939F93AF932B
:10058000BF93EF93FF938091C6008A3009F075C046
:1005900043E069E771E08CEC91E00E946002909189
:1005A000CB01882381F0923009F4E3C0943009F044
:1005B0005EC080918A0181115AC083E08093A901B5
:1005C00090934A01D6C09130D1F128F0923069F170
:1005D000933089F0CEC046E067E671E08CEC91E0A4
:1005E0000E946002882309F4C4C08091A90181504F
:1005F0008093A901BEC045E06EE671E08CEC91E00D
:100600000E946002882309F4B4C01092A90181E01D
:1006100080934A016EE18AE891E00E9457026EE100
:100620008AEA91E00E945702A4C048E064E771E0C2
:100630008CEC91E00E946002811119C09AC041E0E7
:100640006BE771E08CEC91E00E946002882309F472
:1006500090C0E091A90186E0E89FF0011124E050EC
:10066000FF4F848195818636910509F482C080917F
:100670004A018F5F80934A017CC09091CB019130F9
:1006800009F07FC0803209F086C090918A019111F3
:1006900082C09091AA0191117EC08091CC018B32D1
:1006A00079F42091D10188E491E02093480190935E
:1006B0001B0180931A01909327018093260159C052
:1006C0008091CC018F3209F054C08091CD0181110D
:1006D00018C0E091A90126E02E9FF0011124E050FE
:1006E000FF4F158214828091A90190E00196289F06
:1006F000F001299FF00D1124E050FF4F1582148264
:1007000038C08091CD018936A1F42CE34AEA51E04A
:100710006AE871E08CEC91E00E946F02E091A9011F
:1007200046E04E9FF0011124E050FF4F29E630E0F3
:1007300011C08091CD01E091A90146E04E9FF001EA
:100740001124E050FF4F863619F426E630E002C04F
:1007500021E030E0358324838091A90190E0019667
:10076000489FF001499FF00D1124E050FF4F358361
:1007700024831092A8016CE38CEC91E00E94570254
:1007800015C0923041F48E3331F480914A018F5F6D
:1007900080934A010BC0E091A801F0E0E453FE4FC2
:1007A00080838091A8018F5F8093A801FF91EF91D2
:1007B000BF91AF919F918F917F916F915F914F9179
:1007C0003F912F910F900FBE0F901F901895EF92B1
:1007D000FF920F931F93CF93DF931F92CDB7DEB796
:1007E000082F7C018E2D801B861770F4F701149161
:1007F000112351F0812F69830E946505FFEFEF1AE5
:10080000FF0A69811A3071F70F90DF91CF911F9124
:100810000F91FF90EF900895CF93DF93EC016FE07D
:1008200085EB90E00E94E703888199810E946C0526
:1008300086E591E00E946C051092CB01DF91CF918B
:100840000895CF93DF93EC016FE086EA90E00E9479
:10085000E703888199810E946C0564E081E492E05D
:100860000E94E7038A819B810E946C0564E08DE30E
:1008700092E00E94E70383E08093CB01DF91CF9168
:1008800008956EE08CE890E00C94E703CF93DF933B
:10089000EC016EE08EE790E00E94E7038881998189
:1008A0000E946C0587E891E00E946C0563E08AE392
:1008B00092E00E94E70386E591E0DF91CF910C94EE
:1008C0006C0569E085E790E00C94E70381E0809394
:1008D000CB010895CF93DF93EC016CE08AE990E0BF
:1008E0000E94E703888199810E946C0587E891E066
:1008F0000E946C058A819B81009711F482EF06C0EB
:100900008936910511F485E601C08FE10E947F05CB
:1009100086E591E00E946C0582E08093CB01DF9137
:10092000CF910895FC0182819381009721F462EFB9
:1009300088E491E00DC08936910521F465E683EEE7
:1009400090E006C08636910529F06FE184EC90E0D6
:100950000E94E70386E591E00C946C05CF93DF934A
:10096000EC016DE088E690E00E94E70388819981C0
:100970000E946C0586E591E00E946C0584E08093FE
:10098000CB01DF91CF91089584B18C6284B985B198
:10099000846185B98CB583658CBD08958EBD0DB419
:1009A00007FEFDCF08952A9885E00E94CE0480E0DE
:1009B0000E94CE042A9A8EB50895CF93C82F892F0E
:1009C0000E94CE048C2FCF910C94CE04CF92DF9254
:1009D000FF920F931F93CF93DF9300D0CDB7DEB775
:1009E0006C01062F2A9883E049835A830E94CE0423
:1009F000C6010E94DD044981F42EC42E5A81D52EF1
:100A00001C2D1F19101758F480E00E94CE048EB5DB
:100A10008F3F29F08EB5F60181936F01F1CF2A9AAD
:100A2000812F0F900F90DF91CF911F910F91FF9029
:100A3000DF90CF9008952A9886E00E94CE042A9AEB
:100A40000895EF92FF920F931F93CF93DF9300D0FF
:100A5000CDB7DEB77C01162F49835A830E941B0550
:100A60002A9882E00E94CE04C7010E94DD044981D9
:100A7000042FE42E5A81F52E8E2D801B811730F421
:100A8000F70181917F010E94CE04F6CF2A9A0E943D
:100A9000D30480FDFCCF0F900F90DF91CF911F9179
:100AA0000F91FF90EF9008951092C50083E380931B
:100AB000C400E0ECF0E080818D7F808388E9809342
:100AC000C10086E08093C20008959091C00095FF18
:100AD000FCCF8093C60008951F93CF93DF93EC0162
:100AE00010E0FE01E10FF11D8081882321F00E94BA
:100AF00065051F5FF6CFDF91CF911F910895CF93CA
:100B0000C82F64E60E949805805D0E9465052AE072
:100B10008C2F622F0E949805C92F0E94980580E3B0
:100B2000890F0E94650580E38C0FCF910C946505B9
:100B3000991B79E004C0991F961708F0961B881F2F
:0C0B40007A95C9F780950895F894FFCFCE
:100B4C000C047D01000041045801000046047F01A3
:100B5C0000006604580100006A0458010000920469
:100B6C0058010000AE04580100000C047F01000085
:100B7C004604810100006104580100000C047F014F
:100B8C0000002104830185013000015772697469EA
:100B9C006E672E2E2E200D0A005772697474656EC6
:100BAC002E2E2E200D0A004552524F520D0046415A
:100BBC00494C0D0053454E44204F4B0D0032003133
:0A0BCC00003000730070002C0000E0
:00000001FF
