:100000000C948A010C94A7010C94A7010C94A701ED
:100010000C94A9010C94A7010C94A7010C94A701BE
:100020000C94A7010C94A7010C94A7010C94F50261
:100030000C9442030C94A7010C94A7010C94A70103
:100040000C94A7010C94A7010C9401040C94A70133
:100050000C94A7010C94A7010C94A7010C94A70180
:100060000C94A7010C94A70141542B434950434CD5
:100070004F53453D0041542B434950535441525432
:100080003D22544350222C2268747470733A2F2FEF
:1000900075732D63656E7472616C312D696F746C4C
:1000A000616D702D726D2E636C6F756466756E6315
:1000B00074696F6E732E6E6574222C38300D0A00D1
:1000C00041542B5253540D0A0041542B4349505371
:1000D00045525645523D0041542B4349504D5558C9
:1000E0003D310D0A0041542B43495053454E443D88
:1000F0000041542B43574A41505F4355523D220023
:1001000041542B43574D4F44455F4355523D003CAE
:10011000703E4572726F722C20706C656173652041
:1001200074727920616761696E3C2F703E003C6893
:10013000313E5468616E6B20796F75213C2F6831B8
:100140003E3C703E506C6561736520666F6C6C6FF1
:10015000772074686520696E737472756374696F53
:100160006E732070726F7669646564207769746855
:1001700020796F757220746F7563686C616D702083
:10018000746F2066696E6973682073657475703C5E
:10019000703E003C68313E57656C636F6D65213C75
:1001A0002F68313E3C68343E506C65617365206554
:1001B0006E74657220796F7572206E6574776F72D8
:1001C0006B20696E666F726D6174696F6E20746FFB
:1001D00020626567696E207573696E6720796F7537
:1001E0007220746F756368206C616D70213C2F689C
:1001F000343E3C666F726D20616374696F6E3D22A0
:100200002F69223E3C696E70757420747970653D6B
:10021000227465787422206E616D653D2273222000
:10022000706C616365686F6C6465723D22535349FD
:1002300044223E3C696E70757420747970653D226D
:100240007465787422206E616D653D227022207085
:100250006C616365686F6C6465723D227061737375
:10026000776F7264223E3C696E7075742074797089
:10027000653D227375626D6974223E3C2F666F7214
:100280006D3E0D0A00383000436F6E74656E742D3C
:100290004C656E6774683A20300D0A00486F7374BD
:1002A0003A2075732D63656E7472616C312D696FC0
:1002B000746C616D702D726D2E636C6F75646675F4
:1002C0006E6374696F6E732E6E65740D0A0020483C
:1002D0005454502F312E300D0A0047455420005001
:1002E0004F5354200026623D0026673D0026723D94
:1002F000002F736574436F6C6F723F733D002F67FF
:100300006574436F6C6F723F733D00220D0A0022CB
:100310002C22000011241FBECFEFD4E0DEBFCDBFE2
:1003200011E0A0E0B1E0E6EEFFE002C005900D9222
:10033000AC39B107D9F722E0ACE9B1E001C01D92B8
:10034000A432B207E1F70E94E8010C94F1070C9483
:1003500000001F920F920FB60F9211248F9386E028
:100360008093E401329908C08091E101815F80931C
:10037000E1018091E10188BD319909C08091E201DC
:10038000815F8093E2018091E2018093B400339910
:1003900008C08091E301815F8093E3018091E301D4
:1003A00087BD109285001092840086B3866086BB5C
:1003B00080916F00826080936F0080916F008B7FCF
:1003C00080936F008F910F900FBE0F901F90189524
:1003D00090E080E80FB6F8948093610090936100FC
:1003E0000FBE84B5836084BD85B5846085BD84B54A
:1003F000806884BD84B5806284BD809181008D60F9
:100400008093810080E197E2909389008093880037
:100410008091B00083608093B0008091B1008660CD
:100420008093B1008091B00080628093B0000E9400
:10043000A1070E941107219A87B1817F87B988B1EE
:100440008E6088B978948CE991E090935D018093F7
:100450005C018FEB91E090935F0180935E014CE92A
:1004600051E06EE180E490E00E94330780919C01AE
:10047000882369F04FEB51E06EE180E890E00E9444
:1004800033078BE08093BB018CE0809362012FEFF8
:1004900081EE94E0215080409040E1F700C00000E0
:1004A000C6E08091BB018C3040F58091BB018B3060
:1004B00029F480918000806480938000E091BB01EA
:1004C0008091BB01CE9FF0011124E85EFE4FC89FD2
:1004D000C00111240190F081E02D64E0865E9E4F02
:1004E00009958091BB018F5F8093BB019091BB0107
:1004F000809162019817D1F3D4CF1092BB0181E0B3
:100500008093620187E08093E40187E690E0909316
:100510000301809302014CE951E06EE180E490E038
:100520000E946E074FEB51E06EE180E890E00E9480
:100530006E078AB188668AB9809180008F7B80932C
:10054000800087E998E990938900809388008EE87D
:100550009BE590938B0080938A00F89480916800CB
:1005600082608093680080916C008E6080936C0044
:10057000D99A7894C6E09091BB0180916201981756
:1005800000F58091E4018630E1F08091BB01843078
:10059000C0F4E091BB018091BB01CE9FF00111241A
:1005A000E050FF4FC89FC00111240190F081E02D61
:1005B00064E08E5F9E4F09958091BB018F5F8093B1
:1005C000BB018091E10188BD8091E2018093B4007C
:1005D0008091E30187BDCFCF282FFC018E2F821B96
:1005E000861710F41192FACF08951F920F920FB64A
:1005F0000F9211242F933F934F935F936F937F93A9
:100600008F939F93AF93BF93EF93FF9341EE51E08E
:1006100063E080E090E00E946E07EFE6F0E080810A
:10062000897F808387E08093E40180E790E0909366
:1006300003018093020181EE91E090930901809380
:10064000080190930F0180930E011092BB0181E08D
:10065000809362011092BA016CE385EE91E00E94F2
:10066000EC02FF91EF91BF91AF919F918F917F919C
:100670006F915F914F913F912F910F900FBE0F900F
:100680001F9018951F920F920FB60F9211242F935F
:100690003F934F935F936F937F938F939F93AF930A
:1006A000BF93EF93FF93EFE6F0E080818B7F808331
:1006B00087E08093E40187E690E0909303018093C4
:1006C00002011092BB0181E0809362011092BA0195
:1006D0006CE385EE91E00E94EC02FF91EF91BF91F7
:1006E000AF919F918F917F916F915F914F913F91CA
:1006F0002F910F900FBE0F901F901895282FDB01A0
:10070000FC018E2F821B841730F491918D919817E4
:10071000C1F380E0089581E00895EF92FF920F9376
:100720001F93CF93DF933217A0F5E32FF0E0DC01A6
:10073000AE0FBF1FCC91CF3319F0AC91A63239F573
:100740003196E80FF91FA081A33729F0E081E03747
:10075000F1F4FA0101C0FB013D5F032F10E0C32F4C
:10076000D0E0DC01AC0FBD1FFC900F2EF6E2EF2EA7
:10077000F02DFE14C1F2FC90FF20A9F2FC90DE01E6
:10078000A01BB10BAE0FBF1FFC923F5FE8CF3F5FD6
:10079000CACFDF91CF911F910F91FF90EF900895F5
:1007A000CF92DF92FF920F931F93CF93DF931F920D
:1007B000CDB7DEB76C0100E00617C9F00F5F902FD0
:1007C00011E0812F961739F0880F182F110F110F94
:1007D000180F9F5FF6CF69830E94CC07F6019191B5
:1007E0006F019053919FF00C11246981E5CF8F2DFB
:1007F0000F90DF91CF911F910F91FF90DF90CF90DD
:1008000008951F920F920FB60F9211242F933F93CA
:100810004F935F936F937F938F939F93AF93BF9308
:10082000EF93FF938091C6009091E401963009F414
:1008300086C18A3009F019C143E065E771E085EEB1
:1008400091E00E947E039091E401882311F194309D
:10085000B1F028F49150923008F454C18AC0953018
:1008600009F087C0809102019091030190930B01E0
:1008700080930A0190931101809310017AC08091B6
:100880009C01811176C083E08093BB01909362014B
:1008900039C1913009F44FC028F0923091F1933072
:1008A000B1F030C146E063E671E085EE91E00E9470
:1008B0007E03882309F426C18091E0018F5F809335
:1008C000E0018091BB0181508093BB011BC145E0D9
:1008D0006AE671E085EE91E00E947E03882309F4C8
:1008E00011C11092BB0181E0809362016EE18CE93D
:1008F00091E00E94EC026EE18FEB91E00E94EC022D
:1009000001C148E060E771E085EE91E00E947E035E
:10091000882309F4F7C0809162018F5F80936201A0
:1009200089E791E090933B0180933A0190933501E0
:1009300080933401E7C046E063E671E085EE91E024
:100940000E947E03811115C041E067E771E085EEEA
:1009500091E00E947E03882391F080913401909170
:1009600035018636910509F4CDC08957914009F4C7
:10097000C9C0809162018F5F80936201C3C042E071
:100980006BE771E085EE91E00E947E03882369F0B9
:100990008091E7018093BC018091E8018093BD01C3
:1009A0008091E9018093BE01ADC042E06EE771E045
:1009B00085EE91E00E947E03882369F08091E70133
:1009C000809321028091E801809322028091E901C5
:1009D0008093230297C042E061E871E085EE91E0E8
:1009E0000E947E03882369F08091E7018093DD01F6
:1009F0008091E8018093DE018091E9018093DF011D
:100A000081C046E064E871E085EE91E00E947E03DB
:100A1000882309F477C0109285001092840086B371
:100A2000866086BB80916F00846080936F008091A8
:100A30000201909103018736910509F063C063E0DC
:100A40008CEB91E00E94D0038093E10163E081E2AE
:100A500092E00E94D0038093E20163E08DED91E08B
:100A60000E94D0038093E3014DC0913009F052C041
:100A7000803209F059C090919C01911155C090911C
:100A8000BF01911151C08091E5018B3279F4209121
:100A9000EA0180E691E02093600190933301809316
:100AA000320190933F0180933E012CC08091E5017B
:100AB0008F3241F58091E601811103C088E690E014
:100AC00019C08091E601893661F42CE34FEB51E0C7
:100AD0006CE971E085EE91E00E948D0389E690E07B
:100AE00009C08091E601863619F486E690E002C0DE
:100AF00085E690E0909335018093340190933B011B
:100B000080933A011092BA016CE385EE91E00E9465
:100B1000EC0215C0923041F48E3331F480916201C1
:100B20008F5F809362010BC0E091BA01F0E0EB515E
:100B3000FE4F80838091BA018F5F8093BA01FF914D
:100B4000EF91BF91AF919F918F917F916F915F9145
:100B50004F913F912F910F900FBE0F901F901895BE
:100B6000EF92FF920F931F93CF93DF931F92CDB716
:100B7000DEB7082F7C018E2D801B861770F4F701DD
:100B80001491112351F0812F69830E94B207FFEF66
:100B9000EF1AFF0A69811A3071F70F90DF91CF9138
:100BA0001F910F91FF90EF900895CF93DF93EC0189
:100BB0006FE080E091E00E94B005888199810E94F9
:100BC000B90783E991E00E94B9071092E401DF912F
:100BD000CF910895CF93DF93EC016FE081EF90E028
:100BE0000E94B005888199810E94B90764E08FE076
:100BF00093E00E94B0058A819B810E94B90764E05E
:100C00008BE093E00E94B00583E08093E401DF91E4
:100C1000CF9108956EE087ED90E00C94B005CF93EE
:100C2000DF93EC016EE089EC90E00E94B0058881D2
:100C300099810E94B907888199818959914049F029
:100C400086E991E00E94B90763E085E892E00E949E
:100C5000B00583E991E0DF91CF910C94B90769E089
:100C600080EC90E00E94B0052FEF84E39CE02150DF
:100C700080409040E1F700C00000089581E080933B
:100C8000E40108956BE485E790E00E94B00585E0FB
:100C90008093E4010895CF93DF93EC016CE085EE3F
:100CA00090E00E94B0058A819B818736910511F4FE
:100CB00086E61AC08037910511F48AE715C088814D
:100CC00099810E94B90786E991E00E94B9078A815B
:100CD0009B818836910511F482EF06C08936910513
:100CE00011F485E601C08FE10E94CC0783E991E011
:100CF0000E94B90782E08093E401DF91CF910895CB
:100D0000CF93DF93EC012A813B812736310581F4B3
:100D100065E08AED92E00E94B0056DE08EEF92E012
:100D20000E94B00588E991E00E94B90781E031C0D6
:100D30002037310509F043C066E08FED92E00E9454
:100D4000B0056DE081EF92E00E94B00588E991E086
:100D50000E94B90781E00E94CC0764E08DEE92E02A
:100D60000E94B005E881F98180810E94CC0764E08F
:100D700089EE92E00E94B005E881F98181810E94AC
:100D8000CC0764E085EE92E00E94B005E881F9812D
:100D900082810E94CC076CE08EEC92E00E94B0054C
:100DA00062E38CE992E00E94B00564E188E892E099
:100DB0000E94B00583E991E00E94B90716C0283669
:100DC000310521F462EF83E991E00DC02936310548
:100DD00021F465E68EE291E006C02636310529F061
:100DE0006FE18FE091E00E94B00583E991E0DF912F
:100DF000CF910C94B907CF93DF93EC016DE088E6B7
:100E000090E00E94B005888199810E94B90783E92A
:100E100091E00E94B90784E08093E401DF91CF91D3
:100E2000089584B18C6284B985B1846185B98CB52B
:100E300083658CBD08958EBD0DB407FEFDCF08956A
:100E40002A9885E00E941B0780E00E941B072A9ACF
:100E50008EB50895CF93C82F892F0E941B078C2F22
:100E6000CF910C941B07CF92DF92FF920F931F93A9
:100E7000CF93DF9300D0CDB7DEB76C01062F2A9851
:100E800083E049835A830E941B07C6010E942A07F8
:100E90004981F42EC42E5A81D52E1C2D1F191017EE
:100EA00058F480E00E941B078EB58F3F29F08EB565
:100EB000F60181936F01F1CF2A9A812F0F900F9045
:100EC000DF91CF911F910F91FF90DF90CF90089508
:100ED0002A9886E00E941B072A9A0895EF92FF92B3
:100EE0000F931F93CF93DF9300D0CDB7DEB77C0174
:100EF000162F49835A830E9468072A9882E00E942D
:100F00001B07C7010E942A074981042FE42E5A813A
:100F1000F52E8E2D801B811730F4F70181917F0112
:100F20000E941B07F6CF2A9A0E94200780FDFCCF63
:100F30000F900F90DF91CF911F910F91FF90EF9045
:100F400008951092C50083E38093C400E0ECF0E0C4
:100F500080818D7F808388E98093C10086E08093C3
:100F6000C20008959091C00095FFFCCF8093C60009
:100F700008951F93CF93DF93EC0110E0FE01E10F82
:100F8000F11D8081882321F00E94B2071F5FF6CFF8
:100F9000DF91CF911F910895CF93C82F64E60E94EF
:100FA000E507805D0E94B2072AE08C2F622F0E9425
:100FB000E507C92F0E94E50780E3890F0E94B20769
:100FC00080E38C0FCF910C94B207991B79E004C099
:100FD000991F961708F0961B881F7A95C9F7809578
:060FE0000895F894FFCF14
:100FE6004206950100004B069501670080069501B3
:100FF60067003E0695010000D5058B0100000A0634
:10100600950100000F068D0100003E0695010000C7
:101016004B0695017901800695017901FB0695013C
:101026000000D5058D0100000F06990100002F066E
:1010360095010000D5058D010000EA058F0191019B
:101046003000014552524F520D004641494C0D00A9
:1010560053454E44204F4B0D007800722000672008
:1010660000622000434C4F53454400320031007368
:0C1076000070000D0A002C00303000005B
:00000001FF
