:100000000C9434000C9451000C9451000C94510049
:100010000C9453000C9451000C9451000C9451001A
:100020000C9451000C9451000C9451000C947E00DF
:100030000C9451000C9451000C9451000C945100FC
:100040000C9451000C9451000C9451000C945100EC
:100050000C9451000C9451000C9451000C945100DC
:100060000C9451000C94510011241FBECFEFD4E02A
:10007000DEBFCDBF11E0A0E0B1E0E8E8F3E002C0F0
:1000800005900D92AC31B107D9F721E0ACE1B1E0B8
:1000900001C01D92AF31B207E1F70E94B4000C9489
:1000A000C2010C9400001F920F920FB60F92112400
:1000B0008F93339905C080911C01815F80931C014F
:1000C000329905C080911D01815F80931D01319996
:1000D00005C080911E01815F80931E0110928500F2
:1000E00010928400B19A80916F00826080936F00BB
:1000F0008F910F900FBE0F901F9018951F920F9227
:100100000FB60F9211242F933F934F935F936F93EA
:100110007F938F939F93AF93BF93EF93FF9380E071
:1001200091E00E94AF014CE151E063E080E090E09B
:100130000E9464018EE091E00E94AF01EFE6F0E0E2
:1001400080818D7F8083FF91EF91BF91AF919F91CF
:100150008F917F916F915F914F913F912F910F9070
:100160000FBE0F901F90189590E080E80FB6F8949E
:1001700080936100909361000FBE84B5836084BD5D
:1001800085B5846085BD84B5806884BD84B5806292
:1001900084BD809181008D608093810087E998E91A
:1001A00090938900809388008091B0008360809351
:1001B000B0008091B10086608093B1008091B00062
:1001C00080628093B0000E9497010E940D0180918F
:1001D000680082608093680080916C008E608093DC
:1001E0006C008AB188668AB987B1817F87B988B186
:1001F0008E6088B94CE151E063E080E090E00E94BD
:100200002F01789480911C0187BD80911D0188BDCC
:1002100080911E018093B400F4CF84B18C6284B9C4
:1002200085B1846185B98CB583658CBD08958EBD1B
:100230000DB407FEFDCF08952A9885E00E941701AE
:1002400080E00E9417012A9A8EB50895CF93C82F97
:10025000892F0E9417018C2FCF910C941701EF92D8
:10026000FF920F931F93CF93DF9300D0CDB7DEB7EC
:100270007C01162F2A9883E049835A830E94170134
:10028000C7010E9426014981042FE42E5A81F52ED0
:100290008E2D801B811740F480E00E9417018EB5DF
:1002A000F70181937F01F4CF2A9A0F900F90DF918D
:1002B000CF911F910F91FF90EF9008952A9886E0BB
:1002C0000E9417012A9A0895EF92FF920F931F93AD
:1002D000CF93DF9300D0CDB7DEB77C01162F4983D3
:1002E0005A830E945E012A9882E00E941701C7018A
:1002F0000E9426014981042FE42E5A81F52E8E2D6D
:10030000801B811730F4F70181917F010E94170152
:10031000F6CF2A9A0E941C0180FDFCCF0F900F900F
:10032000DF91CF911F910F91FF90EF900895109260
:10033000C50083E38093C400E0ECF0E080818D7F12
:10034000808388E18093C10086E08093C200089595
:100350009091C00095FFFCCF8093C60008951F9335
:10036000CF93DF93EC0110E0FE01E10FF11D8081DE
:10037000882321F00E94A8011F5FF6CFDF91CF9163
:080380001F910895F894FFCFCE
:1003880057726974696E672E2E2E200D0A005772F7
:0C039800697474656E2E2E2E200D0A0074
:00000001FF
