:100000000C9434000C9446000C9446000C9446006A
:100010000C9448000C9446000C9446000C94460046
:100020000C9446000C9446000C9446000C94460038
:100030000C9446000C9446000C9446000C94460028
:100040000C9446000C9446000C9446000C94460018
:100050000C9446000C9446000C9446000C94460008
:100060000C9446000C94460011241FBECFEFD4E040
:10007000DEBFCDBF21E0A0E0B1E001C01D92A33002
:10008000B207E1F70E9469000C94BF000C940000D5
:100090001F920F920FB60F9211248F93339905C0C0
:1000A00080910201815F80930201329905C08091A5
:1000B0000101815F80930101319905C080910001A8
:1000C000815F809300018F910F900FBE0F901F9062
:1000D000189590E080E80FB6F894809361009093B3
:1000E00061000FBE84B5836084BD85B5846085BD25
:1000F00084B5806884BD84B5806284BD8091B00081
:1001000083608093B0008091B10086608093B100DD
:100110008091B00080628093B0000E94AE00809118
:10012000680082608093680080916C008E6080938C
:100130006C008AB188668AB987B1817F87B988B136
:100140008E6088B978948091020187BD8091010109
:1001500088BD809100018093B400F4CF1092C50057
:1001600083E38093C400E0ECF0E080818D7F8083A6
:1001700088E18093C10086E08093C2000895F894DE
:02018000FFCFAF
:00000001FF
