:100000000C9448000C9465000C9465000C946500F9
:100010000C9467000C9465000C9465000C946500CA
:100020000C9465000C9465000C9465000C9492008F
:100030000C9465000C9465000C9465000C946500AC
:100040000C9465000C9465000C9465000C9465009C
:100050000C9465000C9465000C9465000C9465008C
:100060000C9465000C94650041542B43574A415051
:100070005F4355523D0041542B43574C41500D0AAC
:100080000041542B43574D4F44455F4355523D006B
:1000900011241FBECFEFD4E0DEBFCDBF11E0A0E042
:1000A000B1E0E2E4F5E002C005900D92A838B10796
:1000B000D9F721E0A8E8B1E001C01D92AC38B20741
:1000C000E1F70E94C8000C949F020C9400001F925C
:1000D0000F920FB60F9211248F93339905C0809120
:1000E0008901815F80938901329905C080918A01DD
:1000F000815F80938A01319905C080918B01815F76
:1001000080938B011092850010928400B19A8091A7
:100110006F00826080936F008F910F900FBE0F90E1
:100120001F9018951F920F920FB60F9211242F93C4
:100130003F934F935F936F937F938F939F93AF936F
:10014000BF93EF93FF9380E091E00E943D0249E866
:1001500051E063E080E090E00E94F2018EE091E0E7
:100160000E943D02EFE6F0E080818D7F8083FF9169
:10017000EF91BF91AF919F918F917F916F915F911F
:100180004F913F912F910F900FBE0F901F90189598
:1001900090E080E80FB6F89480936100909361003E
:1001A0000FBE84B5836084BD85B5846085BD84B58C
:1001B000806884BD84B5806284BD809181008D603B
:1001C0008093810087E998E9909389008093880063
:1001D0008091B00083608093B0008091B100866010
:1001E0008093B1008091B00080628093B0000E9443
:1001F00025020E949B0149E851E063E080E090E025
:100200000E94BD01C4E0D0E016E184E090E00E94CD
:100210005002E0918801809188011E9FF001112415
:10022000E85DFE4F189FC00111240190F081E02D80
:1002300064E1865D9E4F0995809188018F5F809370
:1002400088012197209709F78AB188668AB987B112
:10025000817F87B988B18E6088B98091680082609B
:100260008093680080916C008E6080936C0078941D
:100270008091890187BD80918A0188BD80918B0121
:100280008093B400F5CFEF92FF920F931F93CF931B
:10029000DF931F92CDB7DEB7082F7C018E2D801B18
:1002A000861760F4F7011491812F69830E9436024A
:1002B000FFEFEF1AFF0A69811A3081F70F90DF9183
:1002C000CF911F910F91FF90EF900895CF93DF93FF
:1002D000EC016EE081E890E00E9443018881998101
:1002E0000E943D028BE091E0DF91CF910C943D02A2
:1002F0006AE086E790E00C944301CF93DF93EC0132
:100300006DE088E690E00E94430182E891E00E945F
:100310003D02888199810E943D0280E891E00E941F
:100320003D028A819B810E943D0284E891E0DF9139
:10033000CF910C943D0284B18C6284B985B1846103
:1003400085B98CB583658CBD08958EBD0DB407FE4F
:10035000FDCF08952A9885E00E94A50180E00E94C3
:10036000A5012A9A8EB50895CF93C82F892F0E9490
:10037000A5018C2FCF910C94A501EF92FF920F93C2
:100380001F93CF93DF9300D0CDB7DEB77C01162F3C
:100390002A9883E049835A830E94A501C7010E94DD
:1003A000B4014981042FE42E5A81F52E8E2D801B35
:1003B000811740F480E00E94A5018EB5F70181937A
:1003C0007F01F4CF2A9A0F900F90DF91CF911F9168
:1003D0000F91FF90EF9008952A9886E00E94A50162
:1003E0002A9A0895EF92FF920F931F93CF93DF9372
:1003F00000D0CDB7DEB77C01162F49835A830E9407
:10040000EC012A9882E00E94A501C7010E94B40174
:100410004981042FE42E5A81F52E8E2D801B8117E1
:1004200030F4F70181917F010E94A501F6CF2A9A4D
:100430000E94AA0180FDFCCF0F900F90DF91CF9119
:100440001F910F91FF90EF9008951092C50083E3E4
:100450008093C400E0ECF0E080818D7F808388E1B0
:100460008093C10086E08093C20008959091C000FF
:1004700095FFFCCF8093C60008951F93CF93DF9321
:10048000EC0110E0FE01E10FF11D8081882321F0D5
:100490000E9436021F5FF6CFDF91CF911F91089522
:1004A0000F931F93CF93DF93EC0160E177E20E94FB
:1004B0008B0280E3860F0E943602CE0168EE73E065
:1004C0000E948B02CB010AE010E0B8010E948B026F
:1004D000805D0E943602CE0164E670E00E948B02CD
:1004E000CB01B8010E948B02805D0E943602CE01D2
:1004F000B8010E948B02C82FCB01B8010E948B0269
:10050000805D0E94360280E38C0FDF91CF911F91B6
:100510000F910C943602AA1BBB1B51E107C0AA1F06
:10052000BB1FA617B70710F0A61BB70B881F991F94
:100530005A95A9F780959095BC01CD010895F8943E
:02054000FFCFEB
:1005420057726974696E672E2E2E200D0A0057723B
:10055200697474656E2E2E2E200D0A00310073739D
:10056200696400706173730066011C010000000081
:100572000000000000000000000000000000780100
:100582000D0100000000000000000000000000005B
:10059200000000007D011E01230100000000000098
:1005A200000000000000000000007D011E01230188
:1005B2000000000000000000000000000000000039
:0805C200222C2200220D0A0088
:00000001FF
