:100000000C9449000C9466000C9466000C946600F5
:100010000C94B2000C9466000C9466000C9466007C
:100020000C9466000C9466000C9466000C94DD0041
:100030000C9466000C9466000C9466000C946600A8
:100040000C9466000C9466000C9466000C94660098
:100050000C9466000C9466000C9466000C94660088
:100060000C9466000C94660041542B43574A41504F
:100070005F4355523D0041542B43574C41500D00B6
:1000800041542B43574D4F44455F4445463D310D48
:10009000000011241FBECFEFD4E0DEBFCDBF11E0C2
:1000A000A0E0B1E0EAE5F4E002C005900D92AA33C9
:1000B000B107D9F721E0AAE3B1E001C01D92AD3349
:1000C000B207E1F70E9413010C942B020C9400007C
:1000D000EF92FF921F93CF93DF931F92CDB7DEB7BE
:1000E000182F7C018E2D811B861750F4F701849107
:1000F00069830E941102FFEFEF1AFF0A6981F2CFB4
:100100000F90DF91CF911F91FF90EF90089560E1E4
:1001100080E890E00C94680069E086E790E00C9439
:1001200068000F931F93CF93DF93EC018B016DE079
:1001300088E690E00E94680082E091E00E94180248
:10014000CE010E94180280E091E00E941802C801CE
:100150000E94180284E091E0DF91CF911F910F91EE
:100160000C9418021F920F920FB60F9211248F93C6
:10017000339905C080913A01815F80933A013299A9
:1001800005C080913B01815F80933B01319905C09F
:1001900080913C01815F80933C0110928500109218
:1001A0008400B19A80916F00826080936F008F917C
:1001B0000F900FBE0F901F9018951F920F920FB6C1
:1001C0000F9211242F933F934F935F936F937F93DD
:1001D0008F939F93AF93BF93EF93FF9387E091E04B
:1001E0000E9418024AE351E063E080E090E00E9440
:1001F000CD0185E191E00E941802EFE6F0E08081F8
:100200008D7F8083FF91EF91BF91AF919F918F91EF
:100210007F916F915F914F913F912F910F900FBE02
:100220000F901F90189590E080E80FB6F894809397
:100230006100909361000FBE84B5836084BD85B575
:10024000846085BD84B5806884BD84B5806284BDCA
:10025000809181008D608093810087E998E9909377
:100260008900809388008091B00083608093B00003
:100270008091B10086608093B1008091B00080626F
:100280008093B0000E9400020E9476018091680075
:1002900082608093680080916C008E6080936C0017
:1002A0008AB188668AB987B1817F87B988B18E6043
:1002B00088B94AE351E063E080E090E00E94980151
:1002C0000E9487000E948C0063E271E084E391E069
:1002D0000E949100789480913A0187BD80913B0102
:1002E00088BD80913C018093B400F4CF84B18C62CE
:1002F00084B985B1846185B98CB583658CBD089559
:100300008EBD0DB407FEFDCF08952A9885E00E94AA
:10031000800180E00E9480012A9A8EB50895CF93D3
:10032000C82F892F0E9480018C2FCF910C948001BF
:10033000EF92FF920F931F93CF93DF9300D0CDB72F
:10034000DEB77C01162F2A9883E049835A830E94E6
:100350008001C7010E948F014981042FE42E5A8138
:10036000F52E8E2D801B811740F480E00E948001C5
:100370008EB5F70181937F01F4CF2A9A0F900F90E9
:10038000DF91CF911F910F91FF90EF9008952A98E0
:1003900086E00E9480012A9A0895EF92FF920F93BF
:1003A0001F93CF93DF9300D0CDB7DEB77C01162F1C
:1003B00049835A830E94C7012A9882E00E948001E3
:1003C000C7010E948F014981042FE42E5A81F52E26
:1003D0008E2D801B811730F4F70181917F010E94DF
:1003E0008001F6CF2A9A0E94850180FDFCCF0F90F4
:1003F0000F90DF91CF911F910F91FF90EF90089593
:100400001092C50083E38093C400E0ECF0E08081AB
:100410008D7F808388E18093C10086E08093C20055
:1004200008959091C00095FFFCCF8093C600089579
:100430001F93CF93DF93EC0110E0FE01E10FF11D5C
:100440008081882321F00E9411021F5FF6CFDF9187
:0A045000CF911F910895F894FFCF9B
:10045A00222C2200220D0057726974696E672E2EB3
:10046A002E200D0A005772697474656E2E2E2E2086
:10047A000D0A005332394833333332574C5332560C
:0A048A004747460038484B4A43003C
:00000001FF
