:100000000C945B000C9478000C9478000C947800AD
:100010000C947A000C9478000C9478000C9478007E
:100020000C9478000C9478000C9478000C94AF0039
:100030000C9478000C9478000C9478000C94780060
:100040000C9478000C9478000C9428020C9478009E
:100050000C9478000C9478000C9478000C94780040
:100060000C9478000C94780041542B5253540D0A90
:100070000041542B4349505345525645523D00418F
:10008000542B4349504D55583D310D0A0041542BD6
:1000900043574A41505F4355523D220041542B4340
:1000A000574D4F44455F4355523D00383000220DB7
:1000B0000A00222C220011241FBECFEFD4E0DEBFA5
:1000C000CDBF11E0A0E0B1E0E4E7F8E002C00590A8
:1000D0000D92AC37B107D9F721E0ACE7B1E001C030
:1000E0001D92AC3DB207E1F70E94E5000C94380484
:1000F0000C9400001F920F920FB60F9211248F9351
:10010000339908C08091BA01815F8093BA018091D0
:10011000BA0187BD329908C08091BB01815F80938D
:10012000BB018091BB0188BD319909C08091BC01A0
:10013000815F8093BC018091BC018093B4001092D8
:10014000850010928400B19A80916F008260809344
:100150006F008F910F900FBE0F901F9018951F92F8
:100160000F920FB60F9211242F933F934F935F93EB
:100170006F937F938F939F93AF93BF93EF93FF936F
:1001800087E391E00E94EC034AEB51E063E080E0FA
:1001900090E00E94A10385E491E00E94EC03EFE669
:1001A000F0E080818D7F8083FF91EF91BF91AF91CF
:1001B0009F918F917F916F915F914F913F912F917F
:1001C0000F900FBE0F901F90189590E080E80FB62B
:1001D000F89480936100909361000FBE84B58360B2
:1001E00084BD85B5846085BD84B5806884BD84B5D3
:1001F000806284BD809181008D608093810087E959
:1002000098E990938900809388008091B000836082
:100210008093B0008091B10086608093B10080919E
:10022000B00080628093B0000E94D4030E94440317
:100230004AEB51E063E080E090E00E94660378942E
:100240008CE791E090933401809333018CE991E045
:1002500090933601809335014CE751E06EE180E4E4
:1002600090E00E94660380917C01882369F04CE94C
:1002700051E06EE180E890E00E94660388E08093A0
:100280009B0189E080930001C6E080919B01893049
:10029000F8F4E0919B0180919B01CE9FF001112425
:1002A000EF5FFE4FC89FC00111240190F081E02D47
:1002B00064E08D5F9E4F099580919B018F5F8093D5
:1002C0009B0190919B01809100019817D1F3DDCFA4
:1002D0008AB188668AB987B1817F87B988B18E6013
:1002E00088B98091680082608093680080916C007A
:1002F0008E6080936C008091BA0187BD8091BB01B4
:1003000088BD8091BC018093B400FFCF282FFC01F1
:100310008E2F821B861710F41192FACF0895FC01DC
:100320003081FB012081321307C0FC019181FB0168
:100330008181981301C0089580E008954F925F92E3
:100340006F927F928F929F92AF92BF92CF92DF92E5
:10035000EF92FF920F931F93CF93DF931F92CDB72E
:10036000DEB72C016B017A01922E391508F05EC0C0
:10037000E32FF0E0D201AE0FBF1F8C918F3321F03D
:100380008C91863209F050C03196E40DF51D8081C4
:10039000833711F53D5F832E032F10E0632E712C00
:1003A0005201A60CB71CF50180818632F1F2391595
:1003B000E0F6882D39830E94130482E491E00E94C4
:1003C000EC03F301E01BF10BEC0DFD1DD5018C914D
:1003D000808339813F5FE2CF8081803729F53D5F9F
:1003E000832EA32EB12C632E712C8201060D171DB6
:1003F000F8018081863209F4B8CF8081882309F41E
:10040000B4CF882D39830E94130482E491E00E94C6
:10041000EC03F301EA19FB09EE0DFF1DD8018C91E5
:10042000808339813F5FDFCF3F5F9FCF0F90DF91A8
:10043000CF911F910F91FF90EF90DF90CF90BF90E1
:10044000AF909F908F907F906F905F904F900895A6
:100450001F920F920FB60F9211242F933F934F9339
:100460005F936F937F938F939F93AF93BF93EF931C
:10047000FF938091C6008A30B9F563E571E08EEB99
:1004800091E00E948F01882331F0809100018F5FFD
:100490008093000155C067E571E08EEB91E00E940A
:1004A0008F01882331F080919B01815080939B01C3
:1004B00047C06BE571E08EEB91E00E948F018823CD
:1004C00081F010929B0181E0809300016EE18CE746
:1004D00091E00E9486016EE18CE991E00E94860124
:1004E0002FC08EEB91E02AC09091BD01913081F533
:1004F000803271F590917C01992321F090919C01BB
:10050000911126C08091BE018B3229F48FE591E0D4
:100510000E94EC0315C08091BE018F3289F42EE158
:100520004CE951E06CE771E08EEB91E00E949E0196
:100530008CE791E00E94FF038CE991E00E94FF03A9
:1005400010929A016EE18EEB91E00E9486010BC041
:10055000E0919A01F0E0E254FE4F808380919A018D
:100560008F5F80939A01FF91EF91BF91AF919F911F
:100570008F917F916F915F914F913F912F910F904C
:100580000FBE0F901F901895EF92FF920F931F933D
:10059000CF93DF931F92CDB7DEB7082F7C018E2D4E
:1005A000801B861770F4F7011491112351F0812FED
:1005B00069830E94E503FFEFEF1AFF0A69811A3091
:1005C00071F70F90DF91CF911F910F91FF90EF90F6
:1005D0000895CF93DF93EC016FE08CE990E00E94E7
:1005E000C402888199810E94EC0382E491E00E9418
:1005F000EC031092BD01DF91CF910895CF93DF936B
:10060000EC016FE08DE890E00E94C402888199813E
:100610000E94EC0364E082EB90E00E94C4028A81B5
:100620009B810E94EC0364E08EEA90E0DF91CF9121
:100630000C94C4026EE08FE790E00C94C402CF9358
:10064000DF93EC016EE081E790E00E94C4028881B4
:1006500099810E94EC0389E791E00E94EC0363E03A
:100660008BEA90E00E94C40282E491E00E94EC03D5
:1006700081E08093BD01DF91CF91089569E088E624
:1006800090E00C94C402089584B18C6284B985B161
:10069000846185B98CB583658CBD08958EBD0DB41C
:1006A00007FEFDCF08952A9885E00E944E0380E062
:1006B0000E944E032A9A8EB50895CF93C82F892F92
:1006C0000E944E038C2FCF910C944E03CF92DF9259
:1006D000FF920F931F93CF93DF9300D0CDB7DEB778
:1006E0006C01062F2A9883E049835A830E944E03A7
:1006F000C6010E945D034981F42EC42E5A81D52E75
:100700001C2D1F19101758F480E00E944E038EB55F
:100710008F3F29F08EB5F60181936F01F1CF2A9AB0
:10072000812F0F900F90DF91CF911F910F91FF902C
:10073000DF90CF9008952A9886E00E944E032A9A6F
:100740000895EF92FF920F931F93CF93DF9300D002
:10075000CDB7DEB77C01162F49835A830E949B03D5
:100760002A9882E00E944E03C7010E945D034981DE
:10077000042FE42E5A81F52E8E2D801B811730F424
:10078000F70181917F010E944E03F6CF2A9A0E94C1
:10079000530380FDFCCF0F900F90DF91CF911F91FD
:1007A0000F91FF90EF9008951092C50083E380931E
:1007B000C400E0ECF0E080818D7F808388E9809345
:1007C000C10086E08093C20008959091C00095FF1B
:1007D000FCCF8093C60008951F93CF93DF93EC0165
:1007E00010E0FE01E10FF11D8081882321F00E94BD
:1007F000E5031F5FF6CFDF91CF911F9108951F93FF
:10080000CF93DF93EC0110E0FE01E10FF11D808139
:10081000882329F080810E94E5031F5FF5CFDF91D7
:10082000CF911F910895CF93C82F64E60E942C04A6
:10083000805D0E94E5032AE08C2F622F0E942C0429
:10084000C92F0E942C0480E3890F0E94E50380E3F6
:100850008C0FCF910C94E503991B79E004C0991F8C
:10086000961708F0961B881F7A95C9F7809508950A
:04087000F894FFCF2A
:1008740001E902670100001A03440100001F036933
:10088400010000430344010000E902690100001F64
:10089400036B0100003E0344010000E9026901000A
:1008A40000FE026D01700157726974696E672E2E25
:1008B4002E200D0A005772697474656E2E2E2E2038
:1008C4000D0A004F4B0D0045520D0046410D006EC0
:1008D4006574776F726B00320031003000737300FF
:0C08E40070617373776F7264002C000069
:00000001FF
