:100000000C9434000C9451000C9451000C94510049
:100010000C9453000C9451000C9451000C9451001A
:100020000C9451000C9451000C9451000C947E00DF
:100030000C9451000C9451000C9451000C945100FC
:100040000C9451000C9451000C9451000C945100EC
:100050000C9451000C9451000C9451000C945100DC
:100060000C9451000C94510011241FBECFEFD4E02A
:10007000DEBFCDBF11E0A0E0B1E0ECE4F2E002C0F1
:1000800005900D92A231B107D9F721E0A2E1B1E0CC
:1000900001C01D92A531B207E1F70E94A9000C949E
:1000A00024010C9400001F920F920FB60F9211249E
:1000B0008F93339905C080911401815F809314015F
:1000C000329905C080911301815F809313013199AA
:1000D00005C080911201815F80931201109285000A
:1000E00010928400B19A80916F00826080936F00BB
:1000F0008F910F900FBE0F901F9018951F920F9227
:100100000FB60F9211242F933F934F935F936F93EA
:100110007F938F939F93AF93BF93EF93FF9380E071
:1001200091E00E941101EFE6F0E080818D7F8083F5
:10013000FF91EF91BF91AF919F918F917F916F91BF
:100140005F914F913F912F910F900FBE0F901F9095
:10015000189590E080E80FB6F89480936100909332
:1001600061000FBE84B5836084BD85B5846085BDA4
:1001700084B5806884BD84B5806284BD809181002F
:100180008D608093810087E998E99093890080933E
:1001900088008091B00083608093B0008091B100AE
:1001A00086608093B1008091B00080628093B0003F
:1001B0000E94F900809168008260809368008091BD
:1001C0006C008E6080936C008AB188668AB987B1B2
:1001D000817F87B988B18E6088B978948091140145
:1001E00087BD8091130188BD809112018093B40076
:1001F000F4CF1092C50083E38093C400E0ECF0E0FC
:1002000080818D7F808388E18093C10086E0809328
:10021000C20008959091C00095FFFCCF8093C60066
:1002200008951F93CF93DF93EC0110E0FE01E10FDF
:10023000F11D8081882321F00E940A011F5FF6CF03
:0C024000DF91CF911F910895F894FFCF3B
:10024C0054696D6520746F205265736574200D0AB6
:02025C000000A0
:00000001FF
