:100000000C945B000C9478000C9478000C947800AD
:100010000C947A000C9478000C9478000C9478007E
:100020000C9478000C9478000C9478000C94AF0039
:100030000C9478000C9478000C9478000C94780060
:100040000C9478000C9478000C94E1010C947800E6
:100050000C9478000C9478000C9478000C94780040
:100060000C9478000C94780041542B5253540D0A90
:100070000041542B4349505345525645523D00418F
:10008000542B4349504D55583D310D0A0041542BD6
:1000900043574A41505F4355523D220041542B4340
:1000A000574D4F44455F4355523D00383000220DB7
:1000B0000A00222C220011241FBECFEFD4E0DEBFA5
:1000C000CDBF11E0A0E0B1E0EEE5F7E002C00590A1
:1000D0000D92AC37B107D9F721E0ACE7B1E001C030
:1000E0001D92AA3FB207E1F70E94E5000C94AD0310
:1000F0000C9400001F920F920FB60F9211248F9351
:10010000339908C08091BA01815F8093BA018091D0
:10011000BA0187BD329908C08091BB01815F80938D
:10012000BB018091BB0188BD319909C08091BC01A0
:10013000815F8093BC018091BC018093B4001092D8
:10014000850010928400B19A80916F008260809344
:100150006F008F910F900FBE0F901F9018951F92F8
:100160000F920FB60F9211242F933F934F935F93EB
:100170006F937F938F939F93AF93BF93EF93FF936F
:1001800087E391E00E949A034AEB51E063E080E04C
:1001900090E00E944F0385E491E00E949A03EFE60D
:1001A000F0E080818D7F8083FF91EF91BF91AF91CF
:1001B0009F918F917F916F915F914F913F912F917F
:1001C0000F900FBE0F901F90189590E080E80FB62B
:1001D000F89480936100909361000FBE84B58360B2
:1001E00084BD85B5846085BD84B5806884BD84B5D3
:1001F000806284BD809181008D608093810087E959
:1002000098E990938900809388008091B000836082
:100210008093B0008091B10086608093B10080919E
:10022000B00080628093B0000E9482030E94F202BC
:100230004AEB51E063E080E090E00E941403789480
:100240008CE791E090933401809333018CE991E045
:1002500090933601809335014CE751E06EE180E4E4
:1002600090E00E94140380917C01882369F04CE99E
:1002700051E06EE180E890E00E94140388E08093F2
:100280009B0189E080930001C6E080919B01893049
:10029000F8F4E0919B0180919B01CE9FF001112425
:1002A000EF5FFE4FC89FC00111240190F081E02D47
:1002B00064E08D5F9E4F099580919B018F5F8093D5
:1002C0009B0190919B01809100019817D1F3DDCFA4
:1002D0008AB188668AB987B1817F87B988B18E6013
:1002E00088B98091680082608093680080916C007A
:1002F0008E6080936C008091BA0187BD8091BB01B4
:1003000088BD8091BC018093B400FFCF282FFC01F1
:100310008E2F821B861710F41192FACF0895FC01DC
:100320003081FB012081321307C0FC019181FB0168
:100330008181981301C0089580E00895EF92FF92A3
:100340000F931F93CF93DF933217A0F5E32FF0E0C5
:10035000DC01AE0FBF1FCC91CF3319F0AC91A632A8
:1003600039F53196E80FF91FA081A33729F0E08114
:10037000E037F1F4FA0101C0FB013D5F032F10E00B
:10038000C32FD0E0DC01AC0FBD1FFC900F2EF6E2B6
:10039000EF2EF02DFE14C1F2FC90FF20A9F2FC908C
:1003A000DE01A01BB10BAE0FBF1FFC923F5FE8CF79
:1003B0003F5FCACFDF91CF911F910F91FF90EF90D8
:1003C00008951F920F920FB60F9211242F933F930F
:1003D0004F935F936F937F938F939F93AF93BF934D
:1003E000EF93FF938091C6008A30A1F563E571E039
:1003F0008EEB91E00E948F01882331F08091000103
:100400008F5F809300014AC067E571E08EEB91E059
:100410000E948F01882331F080919B01815080934D
:100420009B013CC06BE571E08EEB91E00E948F0177
:100430008823A1F110929B0181E0809300016EE17D
:100440008CE791E00E9486016EE18CE991E00E94C8
:10045000860124C09091BD01913041F5803231F583
:1004600090917C01992321F090919C0191111EC0E3
:100470008091BE018B3229F48FE591E00E949A03AE
:100480000DC08091BE018F3249F42CE34CE951E05C
:100490006CE771E08EEB91E00E949E0110929A0150
:1004A0006CE38EEB91E00E9486010BC0E0919A0113
:1004B000F0E0E254FE4F808380919A018F5F809339
:1004C0009A01FF91EF91BF91AF919F918F917F9191
:1004D0006F915F914F913F912F910F900FBE0F90B1
:1004E0001F901895EF92FF920F931F93CF93DF9376
:1004F0001F92CDB7DEB7082F7C018E2D801B86178B
:1005000070F4F7011491112351F0812F69830E9437
:100510009303FFEFEF1AFF0A69811A3071F70F900A
:10052000DF91CF911F910F91FF90EF900895CF939E
:10053000DF93EC016FE08CE990E00E947202888109
:1005400099810E949A0382E491E00E949A0310929A
:10055000BD01DF91CF910895CF93DF93EC016FE060
:100560008DE890E00E947202888199810E949A032E
:1005700064E082EB90E00E9472028A819B810E947B
:100580009A0364E08EEA90E0DF91CF910C947202BE
:100590006EE08FE790E00C947202CF93DF93EC0152
:1005A0006EE081E790E00E947202888199810E944A
:1005B0009A0389E791E00E949A0363E08BEA90E056
:1005C0000E94720282E491E00E949A0381E080938B
:1005D000BD01DF91CF91089569E088E690E00C9429
:1005E0007202089584B18C6284B985B1846185B941
:1005F0008CB583658CBD08958EBD0DB407FEFDCF0F
:1006000008952A9885E00E94FC0280E00E94FC0286
:100610002A9A8EB50895CF93C82F892F0E94FC0285
:100620008C2FCF910C94FC02CF92DF92FF920F930C
:100630001F93CF93DF9300D0CDB7DEB76C01062FA9
:100640002A9883E049835A830E94FC02C6010E94D3
:100650000B034981F42EC42E5A81D52E1C2D1F194F
:10066000101758F480E00E94FC028EB58F3F29F0ED
:100670008EB5F60181936F01F1CF2A9A812F0F90E9
:100680000F90DF91CF911F910F91FF90DF90CF904E
:1006900008952A9886E00E94FC022A9A0895EF9213
:1006A000FF920F931F93CF93DF9300D0CDB7DEB7A8
:1006B0007C01162F49835A830E9449032A9882E0BD
:1006C0000E94FC02C7010E940B034981042FE42E03
:1006D0005A81F52E8E2D801B811730F4F701819100
:1006E0007F010E94FC02F6CF2A9A0E94010380FD3E
:1006F000FCCF0F900F90DF91CF911F910F91FF9042
:10070000EF9008951092C50083E38093C400E0EC5D
:10071000F0E080818D7F808388E98093C10086E04E
:100720008093C20008959091C00095FFFCCF809304
:10073000C60008951F93CF93DF93EC0110E0FE01F4
:10074000E10FF11D8081882321F00E9493031F5F38
:0E075000F6CFDF91CF911F910895F894FFCF5F
:10075E0001970267010000C80244010000CD026942
:10076E00010000F10244010000970269010000CD72
:10077E00026B010000EC02440100009702690100C7
:10078E0000AC026D01700157726974696E672E2E8E
:10079E002E200D0A005772697474656E2E2E2E204F
:1007AE000D0A004F4B0D0045520D0046410D006ED7
:1007BE006574776F726B0032003100300073730016
:0C07CE0070617373776F7264002C000080
:00000001FF
