:100000000C9413010C9430010C9430010C943001C9
:100010000C9432010C9430010C9430010C9430019A
:100020000C9430010C9430010C9430010C94670155
:100030000C9430010C9430010C9430010C9430017C
:100040000C9430010C9430010C9499020C94300102
:100050000C9430010C9430010C9430010C9430015C
:100060000C9430010C94300141542B434950434CC3
:100070004F53453D0041542B5253540D0A004154F7
:100080002B4349505345525645523D0041542B4352
:1000900049504D55583D310D0A0041542B434950AC
:1000A00053454E443D0041542B43574A41505F4312
:1000B00055523D220041542B43574D4F44455F4319
:1000C00055523D003C68313E5468616E6B20796F3B
:1000D00075213C2F68313E3C703E506C6561736504
:1000E00020666F6C6C6F772074686520696E73741E
:1000F00072756374696F6E732070726F7669646570
:1001000064207769746820796F757220746F7563E5
:10011000686C616D7020746F2066696E6973682009
:1001200073657475703C703E003C68313E57656C79
:10013000636F6D65213C2F68313E3C68343E506CE6
:100140006561736520656E74657220796F757220C4
:100150006E6574776F726B20696E666F726D617415
:10016000696F6E20746F20626567696E20757369B0
:100170006E6720796F757220746F756368206C618B
:100180006D70213C2F68343E3C666F726D20616358
:1001900074696F6E3D222F69223E3C696E707574E2
:1001A00020747970653D227465787422206E616DCB
:1001B000653D22732220706C616365686F6C6465B5
:1001C000723D2253534944223E3C696E707574203F
:1001D000747970653D227465787422206E616D6556
:1001E0003D22702220706C616365686F6C6465727B
:1001F0003D2270617373776F7264223E3C696E704A
:10020000757420747970653D227375626D6974220E
:100210003E3C2F666F726D3E0D0A00383000220D95
:100220000A00222C220011241FBECFEFD4E0DEBF33
:10023000CDBF11E0A0E0B1E0E8EBFAE002C005902C
:100240000D92A239B107D9F722E0A2E9B1E001C0CD
:100250001D92A031B207E1F70E949D010C945A054E
:100260000C9400001F920F920FB60F9211248F93DF
:10027000339908C08091D001815F8093D001809133
:10028000D00187BD329908C08091D101815F8093F0
:10029000D1018091D10188BD319909C08091D201ED
:1002A000815F8093D2018091D2018093B40010923B
:1002B000850010928400B19A80916F0082608093D3
:1002C0006F008F910F900FBE0F901F9018951F9287
:1002D0000F920FB60F9211242F933F934F935F937A
:1002E0006F937F938F939F93AF93BF93EF93FF93FE
:1002F0008BE491E00E94220540ED51E063E080E054
:1003000090E00E94D70489E591E00E942205EFE683
:10031000F0E080818D7F8083FF91EF91BF91AF915D
:100320009F918F917F916F915F914F913F912F910D
:100330000F900FBE0F901F90189590E080E80FB6B9
:10034000F89480936100909361000FBE84B5836040
:1003500084BD85B5846085BD84B5806884BD84B561
:10036000806284BD809181008D608093810087E9E7
:1003700098E990938900809388008091B000836011
:100380008093B0008091B10086608093B10080912D
:10039000B00080628093B0000E940A050E947A0437
:1003A00040ED51E063E080E090E00E949C0478948E
:1003B00082E991E0909346018093450182EB91E0C0
:1003C000909348018093470142E951E06EE180E457
:1003D00090E00E949C0480919201882369F042EB96
:1003E00051E06EE180E890E00E949C048BE08093F5
:1003F000B1018CE080930001C6E08091B1018C30A6
:10040000F8F4E091B1018091B101CE9FF001112487
:10041000EF5FFE4FC89FC00111240190F081E02DD5
:1004200064E08D5F9E4F09958091B1018F5F80934D
:10043000B1019091B101809100019817D1F3DDCF06
:100440008AB188668AB987B1817F87B988B18E60A1
:1004500088B98091680082608093680080916C0008
:100460008E6080936C008091D00187BD8091D10116
:1004700088BD8091D2018093B400FFCF282FFC016A
:100480008E2F821B861710F41192FACF0895282F11
:10049000DB01FC018E2F821B841730F491918D912A
:1004A0009817C1F380E0089581E00895EF92FF92DC
:1004B0000F931F93CF93DF933217A0F5E32FF0E054
:1004C000DC01AE0FBF1FCC91CF3319F0AC91A63237
:1004D00039F53196E80FF91FA081A33729F0E081A3
:1004E000E037F1F4FA0101C0FB013D5F032F10E09A
:1004F000C32FD0E0DC01AC0FBD1FFC900F2EF6E245
:10050000EF2EF02DFE14C1F2FC90FF20A9F2FC901A
:10051000DE01A01BB10BAE0FBF1FFC923F5FE8CF07
:100520003F5FCACFDF91CF911F910F91FF90EF9066
:1005300008951F920F920FB60F9211242F933F939D
:100540004F935F936F937F938F939F93AF93BF93DB
:10055000EF93FF938091C6008A3009F05BC043E0BF
:1005600069E771E084ED91E00E9447029091D30128
:10057000882381F0923009F4BBC0943009F044C064
:1005800080919201811140C083E08093B1019093EA
:100590000001AEC0923071F1933091F09111A8C07A
:1005A00046E067E671E084ED91E00E94470288230F
:1005B00009F49EC08091B10181508093B10198C02F
:1005C00045E06EE671E084ED91E00E9447028823E9
:1005D00009F48EC01092B10181E0809300016EE1B8
:1005E00082E991E00E943E026EE182EB91E00E947E
:1005F0003E027EC048E064E771E084ED91E00E9435
:100600004702882309F474C0809100018F5F8093B2
:1006100000016EC09091D301913009F071C0803219
:1006200009F078C090919201911174C09091B2013B
:10063000911170C08091D4018B3279F42091D9014D
:1006400089E491E02093490190931C0180931B0160
:1006500090932801809327014BC08091D4018F3261
:1006600009F046C08091D50181111CC0E091B10113
:1006700026E02E9FF0011124EF5FFE4F15821482B9
:100680008091B10190E00196289FF001299FF00D23
:100690001124EF5FFE4F158214828DE791E00E94D6
:1006A000220526C08091D501893611F52CE342EB55
:1006B00051E062E971E084ED91E00E945602E09120
:1006C000B10146E04E9FF0011124EF5FFE4F29E695
:1006D00030E0358324838091B10190E00196489FFA
:1006E000F001499FF00D1124EF5FFE4F3583248305
:1006F0001092B0016CE384ED91E00E943E0215C0BF
:10070000923041F48E3331F4809100018F5F8093F9
:1007100000010BC0E091B001F0E0EC52FE4F80838D
:100720008091B0018F5F8093B001FF91EF91BF91F5
:10073000AF919F918F917F916F915F914F913F9179
:100740002F910F900FBE0F901F901895EF92FF9270
:100750000F931F93CF93DF931F92CDB7DEB7082F70
:100760007C018E2D801B861770F4F70114911123E4
:1007700051F0812F69830E941B05FFEFEF1AFF0ADA
:1007800069811A3071F70F90DF91CF911F910F910E
:10079000FF90EF900895CF93DF93EC016FE085EB2E
:1007A00090E00E94A603888199810E94220586E537
:1007B00091E00E9422051092D301DF91CF9108951C
:1007C000CF93DF93EC016FE086EA90E00E94A603EE
:1007D000888199810E94220564E082E292E00E9471
:1007E000A6038A819B810E94220564E08EE192E04B
:1007F0000E94A60383E08093D301DF91CF910895F7
:100800006EE08CE890E00C94A603CF93DF93EC01AC
:100810006EE08EE790E00E94A603888199810E9495
:1008200022058FE891E00E94220563E08BE192E0CF
:100830000E94A60386E591E0DF91CF910C942205FA
:1008400069E085E790E00C94A60381E08093D301F2
:100850000895CF93DF93EC016CE08AE990E00E9469
:10086000A603888199810E9422058FE891E00E9469
:1008700022058A819B81009711F482EF04C089369A
:10088000910519F485E60E94350586E591E00E9400
:10089000220582E08093D301DF91CF910895FC017E
:1008A00082819381009721F462EF89E291E006C092
:1008B0008936910529F465E684EC90E00E94A60350
:1008C00086E591E00C942205CF93DF93EC016DE077
:1008D00088E690E00E94A603888199810E94220503
:1008E00086E591E00E94220584E08093D301DF91A8
:1008F000CF91089584B18C6284B985B1846185B942
:100900008CB583658CBD08958EBD0DB407FEFDCFFB
:1009100008952A9885E00E94840480E00E9484045F
:100920002A9A8EB50895CF93C82F892F0E948404E8
:100930008C2FCF910C948404CF92DF92FF920F936F
:100940001F93CF93DF9300D0CDB7DEB76C01062F96
:100950002A9883E049835A830E948404C6010E9436
:1009600093044981F42EC42E5A81D52E1C2D1F19B3
:10097000101758F480E00E9484048EB58F3F29F050
:100980008EB5F60181936F01F1CF2A9A812F0F90D6
:100990000F90DF91CF911F910F91FF90DF90CF903B
:1009A00008952A9886E00E9484042A9A0895EF9276
:1009B000FF920F931F93CF93DF9300D0CDB7DEB795
:1009C0007C01162F49835A830E94D1042A9882E021
:1009D0000E948404C7010E9493044981042FE42EDD
:1009E0005A81F52E8E2D801B811730F4F7018191ED
:1009F0007F010E948404F6CF2A9A0E94890480FD18
:100A0000FCCF0F900F90DF91CF911F910F91FF902E
:100A1000EF9008951092C50083E38093C400E0EC4A
:100A2000F0E080818D7F808388E98093C10086E03B
:100A30008093C20008959091C00095FFFCCF8093F1
:100A4000C60008951F93CF93DF93EC0110E0FE01E1
:100A5000E10FF11D8081882321F00E941B051F5F9B
:100A6000F6CFDF91CF911F910895CF93C82F64E601
:100A70000E944E05805D0E941B052AE08C2F622F8C
:100A80000E944E05C92F0E944E0580E3890F0E94E7
:100A90001B0580E38C0FCF910C941B05991B79E00B
:100AA00004C0991F961708F0961B881F7A95C9F7FE
:080AB00080950895F894FFCF32
:100AB80001CB0385010000000458010000050487EC
:100AC8000100002504580100002904580100004FC6
:100AD8000458010000640458010000CB038701009A
:100AE80000050489010000200458010000CB038799
:100AF800010000E0038B018D0130005772697469B1
:100B08006E672E2E2E200D0A005772697474656E5A
:100B18002E2E2E200D0A004552524F520D004641EE
:100B2800494C0D0053454E44204F4B0D00484F4D46
:100B38004521212100320031003000730070002C63
:020B48000000AB
:00000001FF
