:100000000C948A010C94A7010C94A7010C94A701ED
:100010000C949F050C94A7010C94A7010C94A701C4
:100020000C94A7010C94A7010C94A7010C94B201A5
:100030000C94F8010C94A7010C94A7010C94A7014F
:100040000C94A7010C94A7010C94B7020C94A7017F
:100050000C94A7010C94A7010C94A7010C94A70180
:100060000C946A040C94A70141542B434950434C0F
:100070004F53453D0041542B434950535441525432
:100080003D22544350222C2268747470733A2F2FEF
:1000900075732D63656E7472616C312D696F746C4C
:1000A000616D702D726D2E636C6F756466756E6315
:1000B00074696F6E732E6E6574222C38300D0A00D1
:1000C00041542B5253540D0A0041542B4349505371
:1000D00045525645523D0041542B4349504D5558C9
:1000E0003D310D0A0041542B43495053454E443D88
:1000F0000041542B43574A41505F4355523D220023
:1001000041542B43574D4F44455F4355523D003CAE
:10011000703E4572726F722C20706C656173652041
:1001200074727920616761696E3C2F703E003C6893
:10013000313E5468616E6B20796F75213C2F6831B8
:100140003E3C703E506C6561736520666F6C6C6FF1
:10015000772074686520696E737472756374696F53
:100160006E732070726F7669646564207769746855
:1001700020796F757220746F7563686C616D702083
:10018000746F2066696E6973682073657475703C5E
:10019000703E003C68313E57656C636F6D65213C75
:1001A0002F68313E3C68343E506C65617365206554
:1001B0006E74657220796F7572206E6574776F72D8
:1001C0006B20696E666F726D6174696F6E20746FFB
:1001D00020626567696E207573696E6720796F7537
:1001E0007220746F756368206C616D70213C2F689C
:1001F000343E3C666F726D20616374696F6E3D22A0
:100200002F69223E3C696E70757420747970653D6B
:10021000227465787422206E616D653D2273222000
:10022000706C616365686F6C6465723D22535349FD
:1002300044223E3C696E70757420747970653D226D
:100240007465787422206E616D653D227022207085
:100250006C616365686F6C6465723D227061737375
:10026000776F7264223E3C696E7075742074797089
:10027000653D227375626D6974223E3C2F666F7214
:100280006D3E0D0A00383000436F6E74656E742D3C
:100290004C656E6774683A20300D0A00486F7374BD
:1002A0003A2075732D63656E7472616C312D696FC0
:1002B000746C616D702D726D2E636C6F75646675F4
:1002C0006E6374696F6E732E6E65740D0A0020483C
:1002D0005454502F312E300D0A0047455420005001
:1002E0004F5354200026623D0026673D0026723D94
:1002F000002F736574436F6C6F723F733D002F67FF
:100300006574436F6C6F723F733D00220D0A0022CB
:100310002C22000011241FBECFEFD4E0DEBFCDBFE2
:1003200011E0A0E0B1E0EEEFF4E102C005900D9223
:10033000A83DB107D9F722E0A8EDB1E001C01D92B8
:10034000A736B207E1F70E94AF060C947D0A0C9421
:100350000000282FFC018E2F821B861710F41192AB
:10036000FACF08951F920F920FB60F9211242F9378
:100370003F934F935F936F937F938F939F93AF932D
:10038000BF93EF93FF93EFE6F0E08081897F808356
:1003900087E08093270280E790E0909303018093A9
:1003A00002018DE192E090930901809308019093FE
:1003B0000F0180930E011092F70181E0809362019A
:1003C0001092F6016CE388E292E00E94A901FF918D
:1003D000EF91BF91AF919F918F917F916F915F91BD
:1003E0004F913F912F910F900FBE0F901F90189536
:1003F0001F920F920FB60F9211242F933F934F939A
:100400005F936F937F938F939F93AF93BF93EF937C
:10041000FF93EFE6F0E080818B7F808387E080931D
:10042000270287E690E090930301809302011092E7
:10043000F70181E0809362011092F6016CE388E29B
:1004400092E00E94A901FF91EF91BF91AF919F911E
:100450008F917F916F915F914F913F912F910F906D
:100460000FBE0F901F901895282FDB01FC018E2FD7
:10047000821B841730F491918D919817C1F380E01D
:10048000089581E00895EF92FF920F931F93CF9309
:10049000DF933217A0F5E32FF0E0DC01AE0FBF1FB2
:1004A000CC91CF3319F0AC91A63239F53196E80FE3
:1004B000F91FA081A33729F0E081E037F1F4FA01B8
:1004C00001C0FB013D5F032F10E0C32FD0E0DC0132
:1004D000AC0FBD1FFC900F2EF6E2EF2EF02DFE1498
:1004E000C1F2FC90FF20A9F2FC90DE01A01BB10B31
:1004F000AE0FBF1FFC923F5FE8CF3F5FCACFDF91D7
:10050000CF911F910F91FF90EF900895CF92DF92BE
:10051000FF920F931F93CF93DF931F92CDB7DEB758
:100520006C0100E00617C9F00F5F902F11E0812FDA
:10053000961739F0880F182F110F110F180F9F5FA2
:10054000F6CF69830E94580AF60191916F0190538A
:10055000919FF00C11246981E5CF8F2D0F90DF91D1
:10056000CF911F910F91FF90DF90CF9008951F9230
:100570000F920FB60F9211242F933F934F935F93D7
:100580006F937F938F939F93AF93BF93EF93FF935B
:100590008091C60090912702963009F486C18A3076
:1005A00009F019C143E061EB71E088E292E00E943A
:1005B000340290912702882311F19430B1F028F48D
:1005C0009150923008F454C18AC0953009F087C028
:1005D000809102019091030190930B0180930A0195
:1005E00090931101809310017AC08091D8018111FC
:1005F00076C083E08093F7019093620139C1913016
:1006000009F44FC028F0923091F19330B1F030C12D
:1006100046E06FE971E088E292E00E9434028823AC
:1006200009F426C180911C028F5F80931C02809187
:10063000F70181508093F7011BC145E066EA71E044
:1006400088E292E00E943402882309F411C11092DA
:10065000F70181E0809362016EE188ED91E00E94F4
:10066000A9016EE18BEF91E00E94A90101C148E070
:100670006CEA71E088E292E00E943402882309F477
:10068000F7C0809162018F5F8093620185EB91E0FA
:1006900090933B0180933A0190933501809334010C
:1006A000E7C046E06FE971E088E292E00E94340220
:1006B000811115C041E063EB71E088E292E00E9495
:1006C0003402882391F0809134019091350186366F
:1006D000910509F4CDC0855B914009F4C9C08091B2
:1006E00062018F5F80936201C3C042E067EB71E0FB
:1006F00088E292E00E943402882369F080912A0205
:100700008093F80180912B028093F90180912C0253
:100710008093FA01ADC042E06AEB71E088E292E0BA
:100720000E943402882369F080912A028093640237
:1007300080912B028093650280912C028093660247
:1007400097C042E06DEB71E088E292E00E943402D3
:10075000882369F080912A028093190280912B02EC
:1007600080931A0280912C0280931B0281C046E084
:1007700060EC71E088E292E00E943402882309F480
:1007800077C0109285001092840086B3866086BB85
:1007900080916F00846080936F008091020190913E
:1007A00003018736910509F063C063E088EF91E0AB
:1007B0000E94860280931D0263E084E692E00E941C
:1007C000860280931E0263E089E192E00E94860225
:1007D00080931F024DC0913009F052C0803209F061
:1007E00059C09091D801911155C09091FB01911180
:1007F00051C0809128028B3279F420912D0280E63D
:1008000091E02093600190933301809332019093A3
:100810003F0180933E012CC0809128028F3241F528
:1008200080912902811103C088E690E019C080916F
:100830002902893661F42CE34BEF51E068ED71E059
:1008400088E292E00E94430289E690E009C080912C
:100850002902863619F486E690E002C085E690E02B
:10086000909335018093340190933B0180933A013A
:100870001092F6016CE388E292E00E94A90115C093
:10088000923041F48E3331F4809162018F5F809316
:1008900062010BC0E091F601F0E0E85DFD4F80835E
:1008A0008091F6018F5F8093F601FF91EF91BF91E8
:1008B000AF919F918F917F916F915F914F913F91F8
:1008C0002F910F900FBE0F901F901895109220023D
:1008D0000C943B091F920F920FB60F9211242F9385
:1008E0003F934F935F936F937F938F939F93AF93B8
:1008F000BF93CF93DF93EF93FF938091B900887FED
:10090000883029F480E292E00E947D09EDC0809158
:10091000B900887F803129F480E292E00E94450985
:10092000E3C08091B900887F883309F490C080913A
:10093000B900887F803439F42E9A8091BC008F7D75
:100940008093BC0030C08091B900887F883409F45E
:100950007EC08091B900887F803599F583E691E06B
:100960000E94450AE0912602F0E0E05EFD4F83819F
:100970000E94580AC0912602D0E00E948E09C05EF3
:10098000DD4F8B83E0912602F0E0E05EFD4F838136
:100990000E94580A86E691E00E94450A809126024C
:1009A0008F5F80932602E0912602F0E0EF5DFD4F1D
:1009B0008381811199C08091BC008F7B8093BC00A2
:1009C00093C08091B900887F883509F043C089E6DB
:1009D00091E00E94450AE0912602F0E0E05EFD4FC2
:1009E00083810E94580AC0912602D0E00E948E099D
:1009F000C05EDD4F8B83E0912602F0E0E05EFD4FAC
:100A000083810E94580A8DE691E00E94450A8091F8
:100A100020028B31D9F48091240280FF05C080919F
:100A20001D02815F80931D028091240281FF05C019
:100A300080911E02815F80931E028091240282FFBA
:100A400005C080911F02815F80931F022F9A0E9430
:100A500066044AC08091B900887F8831B9F45A9AF7
:100A60008091BC008F7D8093BC0081E791E00E9463
:100A7000450A809121020E94580A81E791E00E9474
:100A8000450A80E292E00E946D092EC08091B90073
:100A9000887F8032E1F28091B900887F8832F1F45A
:100AA00080912202882321F05C9A0E9431091CC0A7
:100AB00080912602833058F6E0912602F0E0EF5D47
:100AC000FD4F8381882319F280E292E00E945A0947
:100AD000809126028F5F8093260206C08091B90024
:100AE000887F803309F4B3CF8091BC008468809301
:100AF000BC00FF91EF91DF91CF91BF91AF919F919A
:100B00008F917F916F915F914F913F912F910F90B6
:100B10000FBE0F901F901895F901809320026093EB
:100B2000210240932202808180932302818180935D
:100B300024028281809325021092260208951F923A
:100B40000F920FB60F9211242F933F934F935F9301
:100B50006F937F938F939F93AF93BF93EF93FF9385
:100B6000CF93DF9300D01F92CDB7DEB786E080939E
:100B7000270233990EC081E089838A831B829E01FC
:100B80002F5F3F4F41E062E08BE10E948C050E94A5
:100B90003109109285001092840086B3866086BB6E
:100BA00080916F00826080936F0080916F008B7FD7
:100BB00080936F000F900F900F90DF91CF91FF9176
:100BC000EF91BF91AF919F918F917F916F915F91C5
:100BD0004F913F912F910F900FBE0F901F9018953E
:100BE000CF93DF9300D01F92CDB7DEB781E4898326
:100BF0008A838B839E012F5F3F4F40E067E28BE14A
:100C00000E948C0585E791E00E94450A80912002B0
:100C10000E94580A85E791E00E94450A80912102CE
:100C20000E94580A85E791E00E94450A0E94310916
:100C3000809120028111FCCF89E189838A838B8393
:100C40009E012F5F3F4F40E06EE28BE10E948C05DA
:100C500085E791E00E94450A809120020E94580A8F
:100C600085E791E00E94450A809121020E94580A7E
:100C700085E791E00E94450A0E9431098091200297
:100C80008111FCCF88E289838A838B839E012F5F49
:100C90003F4F40E060E28BE10E948C0585E791E0E8
:100CA0000E94450A809120020E94580A85E791E03F
:100CB0000E94450A809121020E94580A85E791E02E
:100CC0000E94450A0E943109809120028111FCCFC7
:100CD00087E3898383E08A838B839E012F5F3F4F65
:100CE00040E067E38BE10E948C050E94310980910E
:100CF00020028111FCCF5A985C982E982F9881E0A1
:100D000089838A831B829E012F5F3F4F41E063E00E
:100D10008BE10E948C0585E791E00E94450A809155
:100D200020020E94580A85E791E00E94450A8091BE
:100D300021020E94580A85E791E00E94450A8091AD
:100D400021020E94580A0E943109809120028111DB
:100D5000FCCF0F900F900F90DF91CF91089590E00E
:100D600080E80FB6F89480936100909361000FBE05
:100D700084B5836084BD85B5846085BD84B5806895
:100D800084BD84B5806284BD809181008D60809334
:100D9000810080E197E290938900809388008091A0
:100DA000B00083608093B0008091B1008660809332
:100DB000B1008091B00080628093B0000E942D0A43
:100DC0000E949D090E942309209A8AB184618AB9F0
:100DD00084B1806C84B93B98439A789488ED91E013
:100DE00090935D0180935C018BEF91E090935F01A4
:100DF00080935E0148ED51E06EE180E490E00E9456
:100E0000BF098091D801882369F04BEF51E06EE172
:100E100080E890E00E94BF098BE08093F7018CE0AE
:100E2000809362012FEF81EE94E02150804090404A
:100E3000E1F700C00000C6E08091F7018C3040F57A
:100E40008091F7018B3029F4809180008064809339
:100E50008000E091F7018091F701CE9FF00111240D
:100E6000E85EFE4FC89FC00111240190F081E02D83
:100E700064E0865E9E4F09958091F7018F5F8093B5
:100E8000F7019091F701809162019817D1F3D4CFC7
:100E90001092F70181E08093620187E0809327023E
:100EA00087E690E0909303018093020148ED51E0C2
:100EB0006EE180E490E00E94FA094BEF51E06EE1B0
:100EC00080E890E00E94FA09809180008F7B8093F7
:100ED000800087E998E990938900809388008EE8E4
:100EE0009BE590938B0080938A000E94F0052FEF82
:100EF00089E698E1215080409040E1F700C0000071
:100F0000F8948091680082608093680080916C0002
:100F1000886080936C00D99A78948AB188668AB97F
:100F2000C6E09091F70180916201981700F58091D9
:100F300027028630E1F08091F7018430C0F4E0911F
:100F4000F7018091F701CE9FF0011124E050FF4F8F
:100F5000C89FC00111240190F081E02D64E08E5FF4
:100F60009E4F09958091F7018F5F8093F7018091E3
:100F70001D0288BD80911E028093B40080911F02E3
:100F800087BDCFCFEF92FF920F931F93CF93DF9345
:100F90001F92CDB7DEB7082F7C018E2D801B8617E0
:100FA00070F4F7011491112351F0812F69830E948D
:100FB0003E0AFFEFEF1AFF0A69811A3071F70F90AE
:100FC000DF91CF911F910F91FF90EF900895CF93F4
:100FD000DF93EC016FE080E091E00E94C20788811E
:100FE00099810E94450A8FEC91E00E94450A109277
:100FF0002702DF91CF910895CF93DF93EC016FE04B
:1010000081EF90E00E94C207888199810E94450A81
:1010100064E08FE093E00E94C2078A819B810E9476
:10102000450A64E08BE093E00E94C20783E080936E
:101030002702DF91CF9108956EE087ED90E00C9448
:10104000C207CF93DF93EC016EE089EC90E00E9441
:10105000C207888199810E94450A88819981855DAE
:10106000914049F082ED91E00E94450A63E085E8F5
:1010700092E00E94C2078FEC91E0DF91CF910C9437
:10108000450A69E080EC90E00E94C2072FEF84E3FC
:101090009CE0215080409040E1F700C0000008959E
:1010A00081E08093270208956BE485E790E00E9439
:1010B000C20785E0809327020895CF93DF93EC0168
:1010C0006CE085EE90E00E94C2078A819B818736A2
:1010D000910511F486E61AC08037910511F48AE76C
:1010E00015C0888199810E94450A82ED91E00E9495
:1010F000450A8A819B818836910511F482EF06C0EA
:101100008936910511F485E601C08FE10E94580AE5
:101110008FEC91E00E94450A82E080932702DF91E4
:10112000CF910895CF93DF93EC012A813B8127363D
:10113000310581F465E08AED92E00E94C2076DE01E
:101140008EEF92E00E94C20784ED91E00E94450A72
:1011500081E031C02037310509F043C066E08FEDF2
:1011600092E00E94C2076DE081EF92E00E94C20708
:1011700084ED91E00E94450A81E00E94580A64E0F3
:101180008DEE92E00E94C207E881F98180810E9481
:10119000580A64E089EE92E00E94C207E881F98172
:1011A00081810E94580A64E085EE92E00E94C207A5
:1011B000E881F98182810E94580A6CE08EEC92E00D
:1011C0000E94C20762E38CE992E00E94C20764E1D8
:1011D00088E892E00E94C2078FEC91E00E94450AE5
:1011E00016C02836310521F462EF83E991E00DC085
:1011F0002936310521F465E68EE291E006C02636F7
:10120000310529F06FE18FE091E00E94C2078FEC79
:1012100091E0DF91CF910C94450ACF93DF93EC01DD
:101220006DE088E690E00E94C207888199810E9463
:10123000450A8FEC91E00E94450A84E080932702E2
:10124000DF91CF91089588E28093B800E9EBF0E058
:10125000808181608083ECEBF0E080818164808319
:10126000089588E791E00E94450AECEBF0E0808168
:10127000846A808308958CE791E00E94450AECEB34
:10128000F0E08081846980830895CF93DF93FC012F
:101290002081220FCBEBD0E0288328818281820F2E
:1012A000888380E891E00E94450A8881DF91CF9190
:1012B0000C94580ACF93DF93FC012681E20FF11DB5
:1012C0008381CBEBD0E0888386E891E00E94450AD9
:1012D0008881DF91CF910C94580ACF93DF93FC0162
:1012E0008181CBEBD0E088838CE891E00E94450AB5
:1012F0008881DF91CF910C94580ACF93DF93FC0142
:101300008081880FCBEBD0E0888382E991E00E9456
:10131000450A8881DF91CF910C94580ACF93DF93CF
:1013200089E991E00E94450ACBEBD0E088810E94D8
:10133000580A8881DF91CF91089584B18C6284B975
:1013400085B1846185B98CB583658CBD08958EBDEA
:101350000DB407FEFDCF08952A9885E00E94A709E5
:1013600080E00E94A7092A9A8EB50895CF93C82FCE
:10137000892F0E94A7098C2FCF910C94A709CF9297
:10138000DF92FF920F931F93CF93DF9300D0CDB7DF
:10139000DEB76C01062F2A9883E049835A830E94A6
:1013A000A709C6010E94B6094981F42EC42E5A81AC
:1013B000D52E1C2D1F19101758F480E00E94A70984
:1013C0008EB58F3F29F08EB5F60181936F01F1CF75
:1013D0002A9A812F0F900F90DF91CF911F910F913B
:1013E000FF90DF90CF9008952A9886E00E94A70989
:1013F0002A9A0895EF92FF920F931F93CF93DF9352
:1014000000D0CDB7DEB77C01162F49835A830E94E6
:10141000F4092A9882E00E94A709C7010E94B60930
:101420004981042FE42E5A81F52E8E2D801B8117C1
:1014300030F4F70181917F010E94A709F6CF2A9A23
:101440000E94AC0980FDFCCF0F900F90DF91CF91EF
:101450001F910F91FF90EF9008951092C50083E3C4
:101460008093C400E0ECF0E080818D7F808388E988
:101470008093C10086E08093C20008959091C000DF
:1014800095FFFCCF8093C60008951F93CF93DF9301
:10149000EC0110E0FE01E10FF11D8081882321F0B5
:1014A0000E943E0A1F5FF6CFDF91CF911F910895F2
:1014B000CF93C82F64E60E94710A805D0E943E0AA5
:1014C0002AE08C2F622F0E94710AC92F0E94710A94
:1014D00080E3890F0E943E0A80E38C0FCF910C9429
:1014E0003E0A991B79E004C0991F961708F0961BD5
:0E14F000881F7A95C9F780950895F894FFCF6C
:1014FE005408D10100005D08D10167009208D101A6
:10150E0067005008D1010000E707C70100001C0862
:10151E00D10100002108C90100005008D1010000CE
:10152E005D08D101B5019208D101B5010D09D101B6
:10153E000000E707C90100002108D501000041089D
:10154E00D1010000E707C9010000FC07CB01CD0166
:10155E003000013C00003E00003C3C00003E3E00DE
:10156E0000242400007C000053540000534F000060
:10157E00536C547200004461547200004164547202
:10158E000000577269746500005265616400004581
:10159E0052524F520D004641494C0D0053454E4498
:1015AE00204F4B0D00780072200067200062200053
:1015BE00434C4F5345440032003100730070000D10
:0815CE000A002C00303000007F
:00000001FF
