:100000000C948A010C94A7010C94A7010C94A701ED
:100010000C94A9010C94A7010C94A7010C94A701BE
:100020000C94A7010C94A7010C94A7010C94140341
:100030000C9461030C94A7010C94A7010C94A701E4
:100040000C94A7010C94A7010C94EF030C94A70146
:100050000C94A7010C94A7010C94A7010C94A70180
:100060000C94A7010C94A70141542B434950434CD5
:100070004F53453D0041542B434950535441525432
:100080003D22544350222C2268747470733A2F2FEF
:1000900075732D63656E7472616C312D696F746C4C
:1000A000616D702D726D2E636C6F756466756E6315
:1000B00074696F6E732E6E6574222C38300D0A00D1
:1000C00041542B5253540D0A0041542B4349505371
:1000D00045525645523D0041542B4349504D5558C9
:1000E0003D310D0A0041542B43495053454E443D88
:1000F0000041542B43574A41505F4355523D220023
:1001000041542B43574D4F44455F4355523D003CAE
:10011000703E4572726F722C20706C656173652041
:1001200074727920616761696E3C2F703E003C6893
:10013000313E5468616E6B20796F75213C2F6831B8
:100140003E3C703E506C6561736520666F6C6C6FF1
:10015000772074686520696E737472756374696F53
:100160006E732070726F7669646564207769746855
:1001700020796F757220746F7563686C616D702083
:10018000746F2066696E6973682073657475703C5E
:10019000703E003C68313E57656C636F6D65213C75
:1001A0002F68313E3C68343E506C65617365206554
:1001B0006E74657220796F7572206E6574776F72D8
:1001C0006B20696E666F726D6174696F6E20746FFB
:1001D00020626567696E207573696E6720796F7537
:1001E0007220746F756368206C616D70213C2F689C
:1001F000343E3C666F726D20616374696F6E3D22A0
:100200002F69223E3C696E70757420747970653D6B
:10021000227465787422206E616D653D2273222000
:10022000706C616365686F6C6465723D22535349FD
:1002300044223E3C696E70757420747970653D226D
:100240007465787422206E616D653D227022207085
:100250006C616365686F6C6465723D227061737375
:10026000776F7264223E3C696E7075742074797089
:10027000653D227375626D6974223E3C2F666F7214
:100280006D3E0D0A00383000436F6E74656E742D3C
:100290004C656E6774683A20300D0A00486F7374BD
:1002A0003A2075732D63656E7472616C312D696FC0
:1002B000746C616D702D726D2E636C6F75646675F4
:1002C0006E6374696F6E732E6E65740D0A0020483C
:1002D0005454502F312E300D0A0047455420005001
:1002E0004F5354200026623D0026673D0026723D94
:1002F000002F736574436F6C6F723F733D002F67FF
:100300006574436F6C6F723F733D00220D0A0022CB
:100310002C22000011241FBECFEFD4E0DEBFCDBFE2
:1003200011E0A0E0B1E0E8E2FFE002C005900D922C
:10033000A03AB107D9F722E0A0EAB1E001C01D92CE
:10034000AF31B207E1F70E94E8010C9492070C94D8
:1003500000001F920F920FB60F9211248F9386E028
:100360008093E201329908C08091DF01815F809320
:10037000DF018091DF0188BD319909C08091E001E2
:10038000815F8093E0018091E0018093B400339914
:1003900008C08091E101815F8093E1018091E101DA
:1003A00087BD109285001092840086B3866086BB5C
:1003B00080916F00826080936F0080916F008B7FCF
:1003C00080936F008F910F900FBE0F901F90189524
:1003D000CF93DF9300D000D01F92CDB7DEB790E06F
:1003E00080E80FB6F89480936100909361000FBE8F
:1003F00084B5836084BD85B5846085BD84B580681F
:1004000084BD84B5806284BD809181008D608093BD
:10041000810080E197E29093890080938800809129
:10042000B00083608093B0008091B10086608093BB
:10043000B1008091B00080628093B0000E944207BA
:100440000E94B206219A87B1817F87B988B18E60F8
:1004500088B94FED51E063E080E090E00E94D4065F
:10046000789480EA91E090935D0180935C0180EC48
:1004700091E090935F0180935E0185E0E3E6F1E017
:10048000DE01119601900D928A95E1F7AE014F5F62
:100490005F4F65E080E490E00E940F0740EA51E082
:1004A0006EE180E490E00E94D4068091A001882350
:1004B00069F040EC51E06EE180E890E00E94D406E3
:1004C0008BE08093BF018CE0809362012FEF81EE7F
:1004D00094E0215080409040E1F700C0000016E019
:1004E0008091BF018C3040F58091BF018B3029F4A1
:1004F00080918000806480938000E091BF018091B2
:10050000BF011E9FF0011124E85EFE4F189FC0013D
:1005100011240190F081E02D64E0865E9E4F0995E4
:100520008091BF018F5F8093BF019091BF01809147
:1005300062019817D1F3D4CF1092BF0181E080936C
:10054000620187E08093E20187E690E090930301E7
:100550008093020140EA51E06EE180E490E00E9465
:100560000F0740EC51E06EE180E890E00E940F0739
:100570008AB188668AB9809180008F7B80938000E1
:1005800087E998E990938900809388008EE89BE53D
:1005900090938B0080938A008091DF0188BD8091C9
:1005A000E0018093B4008091E10187BDF8948091CF
:1005B000680082608093680080916C008E608093F8
:1005C0006C00D99A789416E09091BF0180916201F5
:1005D0009817D0F78091E2018630B1F38091BF0186
:1005E000843090F7E091BF018091BF011E9FF00120
:1005F0001124E050FF4F189FC00111240190F08199
:10060000E02D64E08E5F9E4F09958091BF018F5F62
:100610008093BF01D9CF282FFC018E2F821B861714
:1006200010F41192FACF08951F920F920FB60F9205
:1006300011242F933F934F935F936F937F938F93E7
:100640009F93AF93BF93EF93FF934FED51E063E020
:1006500080E090E00E940F07EFE6F0E08081897F64
:10066000808387E08093E20180E790E0909303012C
:10067000809302018FED91E090930901809308012E
:1006800090930F0180930E011092BF0181E080933F
:1006900062011092BE016CE383EE91E00E940B03B5
:1006A000FF91EF91BF91AF919F918F917F916F914A
:1006B0005F914F913F912F910F900FBE0F901F9020
:1006C00018951F920F920FB60F9211242F933F93FC
:1006D0004F935F936F937F938F939F93AF93BF934A
:1006E000EF93FF93EFE6F0E080818B7F808387E0DC
:1006F0008093E20187E690E09093030180930201EA
:100700001092BF0181E0809362011092BE016CE300
:1007100083EE91E00E940B03FF91EF91BF91AF91A7
:100720009F918F917F916F915F914F913F912F9109
:100730000F900FBE0F901F901895282FDB01FC0122
:100740008E2F821B841730F491918D919817C1F3ED
:1007500080E0089581E00895EF92FF920F931F9338
:10076000CF93DF933217A0F5E32FF0E0DC01AE0F5B
:10077000BF1FCC91CF3319F0AC91A63239F5319629
:10078000E80FF91FA081A33729F0E081E037F1F4E9
:10079000FA0101C0FB013D5F032F10E0C32FD0E041
:1007A000DC01AC0FBD1FFC900F2EF6E2EF2EF02DFA
:1007B000FE14C1F2FC90FF20A9F2FC90DE01A01B08
:1007C000B10BAE0FBF1FFC923F5FE8CF3F5FCACFB8
:1007D000DF91CF911F910F91FF90EF9008951F929D
:1007E0000F920FB60F9211242F933F934F935F9365
:1007F0006F937F938F939F93AF93BF93EF93FF93E9
:100800008091C6009091E201963009F439C18A3096
:1008100009F0CCC043E06AE771E083EE91E00E940A
:100820009D039091E201882311F19430B1F028F4F6
:100830009150923008F407C181C0953009F07EC014
:10084000809102019091030190930B0180930A0122
:10085000909311018093100171C08091A0018111CA
:100860006DC083E08093BF0190936201ECC0913032
:1008700009F44FC028F0923091F19330B1F0E3C009
:1008800046E068E671E083EE91E00E949D038823D4
:1008900009F4D9C08091DE018F5F8093DE018091E1
:1008A000BF0181508093BF01CEC045E06FE671E08B
:1008B00083EE91E00E949D03882309F4C4C0109246
:1008C000BF0181E0809362016EE180EA91E00E94C5
:1008D0000B036EE180EC91E00E940B03B4C048E092
:1008E00065E771E083EE91E00E949D03882309F49F
:1008F000AAC0809162018F5F809362018EE791E0D0
:1009000090933B0180933A01909335018093340199
:100910009AC041E06CE771E083EE91E00E949D0394
:10092000882391F0809134019091350186369105AC
:1009300009F489C08E57914009F485C08091620105
:100940008F5F809362017FC042E060E871E083EED8
:1009500091E00E949D03811176C042E063E871E05E
:1009600083EE91E00E949D0381116DC042E066E834
:1009700071E083EE91E00E949D03811164C046E026
:1009800069E871E083EE91E00E949D03882309F4F9
:100990005AC0109285001092840086B3866086BB90
:1009A00080916F00846080936F004DC0913009F09A
:1009B00052C0803209F059C09091A001911155C0E8
:1009C0009091C001911151C08091E3018B3279F473
:1009D0002091E80180E691E020936001909333013B
:1009E0008093320190933F0180933E012CC080910F
:1009F000E3018F3241F58091E401811103C088E663
:100A000090E019C08091E401893661F42CE340EC58
:100A100051E060EA71E083EE91E00E94AC0389E668
:100A200090E009C08091E401863619F486E690E0F2
:100A300002C085E690E09093350180933401909355
:100A40003B0180933A011092BE016CE383EE91E08A
:100A50000E940B0315C0923041F48E3331F4809123
:100A600062018F5F809362010BC0E091BE01F0E0F4
:100A7000ED51FE4F80838091BE018F5F8093BE0158
:100A8000FF91EF91BF91AF919F918F917F916F9166
:100A90005F914F913F912F910F900FBE0F901F903C
:100AA0001895EF92FF920F931F93CF93DF931F92AE
:100AB000CDB7DEB7082F7C018E2D801B861770F412
:100AC000F7011491112351F0812F69830E9453077C
:100AD000FFEFEF1AFF0A69811A3071F70F90DF916B
:100AE000CF911F910F91FF90EF900895CF93DF93D7
:100AF000EC016FE080E091E00E94510588819981CE
:100B00000E945A0788E991E00E945A071092E20178
:100B1000DF91CF910895CF93DF93EC016FE081EFE8
:100B200090E00E945105888199810E945A0764E0F3
:100B30008FE093E00E9451058A819B810E945A07B1
:100B400064E08BE093E00E94510583E08093E20132
:100B5000DF91CF9108956EE087ED90E00C94510500
:100B6000CF93DF93EC016EE089EC90E00E94510599
:100B7000888199810E945A07888199818E59914074
:100B800049F08BE991E00E945A0763E085E892E022
:100B90000E94510588E991E0DF91CF910C945A07AA
:100BA00069E080EC90E00E9451052FEF84E39CE027
:100BB000215080409040E1F700C00000089581E09E
:100BC0008093E20108956BE485E790E00E9451056F
:100BD00085E08093E2010895CF93DF93EC016CE010
:100BE00085EE90E00E9451058A819B8187369105B0
:100BF00011F486E61AC08037910511F48AE715C012
:100C0000888199810E945A078BE991E00E945A07D6
:100C10008A819B818836910511F482EF06C089365E
:100C2000910511F485E601C08FE10E946D0788E906
:100C300091E00E945A0782E08093E201DF91CF9118
:100C40000895CF93DF93EC012A813B81273631054C
:100C500081F465E08AED92E00E9451056DE08EEF2F
:100C600092E00E9451058DE991E00E945A0781E0CF
:100C700031C02037310509F043C066E08FED92E0C6
:100C80000E9451056DE081EF92E00E9451058DE9CF
:100C900091E00E945A0781E00E946D0764E08DEEAA
:100CA00092E00E945105E881F98180810E946D07E0
:100CB00064E089EE92E00E945105E881F98181812A
:100CC0000E946D0764E085EE92E00E945105E88184
:100CD000F98182810E946D076CE08EEC92E00E94A7
:100CE000510562E38CE992E00E94510564E188E8D5
:100CF00092E00E94510588E991E00E945A0716C0CF
:100D00002836310521F462EF83E991E00DC02936E0
:100D1000310521F465E68EE291E006C02636310504
:100D200029F06FE18FE091E00E94510588E991E0A0
:100D3000DF91CF910C945A07CF93DF93EC016DE0D4
:100D400088E690E00E945105888199810E945A07A7
:100D500088E991E00E945A0784E08093E201DF91E4
:100D6000CF91089584B18C6284B985B1846185B9CD
:100D70008CB583658CBD08958EBD0DB407FEFDCF87
:100D800008952A9885E00E94BC0680E00E94BC0677
:100D90002A9A8EB50895CF93C82F892F0E94BC063A
:100DA0008C2FCF910C94BC06CF92DF92FF920F93C1
:100DB0001F93CF93DF9300D0CDB7DEB76C01062F22
:100DC0002A9883E049835A830E94BC06C6010E9488
:100DD000CB064981F42EC42E5A81D52E1C2D1F1905
:100DE000101758F480E00E94BC068EB58F3F29F0A2
:100DF0008EB5F60181936F01F1CF2A9A812F0F9062
:100E00000F90DF91CF911F910F91FF90DF90CF90C6
:100E100008952A9886E00E94BC062A9A0895EF92C7
:100E2000FF920F931F93CF93DF9300D0CDB7DEB720
:100E30007C01162F49835A830E9409072A9882E071
:100E40000E94BC06C7010E94CB064981042FE42EF4
:100E50005A81F52E8E2D801B811730F4F701819178
:100E60007F010E94BC06F6CF2A9A0E94C10680FD2F
:100E7000FCCF0F900F90DF91CF911F910F91FF90BA
:100E8000EF9008951092C50083E38093C400E0ECD6
:100E9000F0E080818D7F808388E98093C10086E0C7
:100EA0008093C20008959091C00095FFFCCF80937D
:100EB000C60008951F93CF93DF93EC0110E0FE016D
:100EC000E10FF11D8081882321F00E9453071F5FED
:100ED000F6CFDF91CF911F910895CF93C82F64E68D
:100EE0000E948607805D0E9453072AE08C2F622FA4
:100EF0000E948607C92F0E94860780E3890F0E94FF
:100F0000530780E38C0FCF910C945307991B79E022
:100F100004C0991F961708F0961B881F7A95C9F789
:080F200080950895F894FFCFBD
:100F2800E3059A010000EC059A01670021069A0181
:100F38006700DF059A010000760590010000AB0507
:100F48009A010000B00592010000DF059A01000037
:100F5800EC059A017E0121069A017E019C069A0100
:100F68000000760592010000B0059E010000D00542
:100F78009A0100007605920100008B059401960104
:100F880030000154455354004552524F520D00460B
:100F980041494C0D0053454E44204F4B0D007800FD
:100FA800722000672000622000434C4F53454400E4
:100FB80032003100730070000D0A002C0030300040
:00000001FF
