:100000000C9443000C9460000C9460000C9460000D
:100010000C9462000C9460000C9460000C946000DE
:100020000C9460000C9460000C9460000C94970099
:100030000C9460000C9460000C9460000C946000C0
:100040000C9460000C9460000C9497010C94600078
:100050000C9460000C9460000C9460000C946000A0
:100060000C9460000C94600041542B43574A41505B
:100070005F4355523D0041542B43574D4F44455F1C
:100080004355523D000011241FBECFEFD4E0DEBF28
:10009000CDBF11E0A0E0B1E0EAE3F6E002C00590D8
:1000A0000D92A237B107D9F721E0A2E7B1E001C074
:1000B0001D92A539B207E1F70E94CD000C941B03F5
:1000C0000C9400001F920F920FB60F9211248F9381
:1000D000339908C080917401815F8093740180918D
:1000E000740187BD329908C080917501815F80934A
:1000F00075018091750188BD319909C080917601A3
:10010000815F80937601809176018093B400109294
:10011000850010928400B19A80916F008260809374
:100120006F008F910F900FBE0F901F9018951F9228
:100130000F920FB60F9211242F933F934F935F931B
:100140006F937F938F939F93AF93BF93EF93FF939F
:1001500083E191E00E94F40244E751E063E080E033
:1001600090E00E94A90281E291E00E94F402EFE691
:10017000F0E080818D7F8083FF91EF91BF91AF91FF
:100180009F918F917F916F915F914F913F912F91AF
:100190000F900FBE0F901F901895CF93DF93CDB7A0
:1001A000DEB7EC970FB6F894DEBF0FBECDBF90E080
:1001B00080E80FB6F89480936100909361000FBEC1
:1001C00084B5836084BD85B5846085BD84B5806851
:1001D00084BD84B5806284BD809181008D608093F0
:1001E000810087E998E99093890080938800809145
:1001F000B00083608093B0008091B10086608093EE
:10020000B1008091B00080628093B0000E94DC0257
:100210000E944C0244E751E063E080E090E00E94DD
:100220006E0278948E01015E1F4FA8016EE180E49A
:1002300090E00E946E028F8D81111EC016E08091A9
:1002400073018330D0F5E0917301809173011E9F9B
:10025000F0011124EF5FFE4F189FC001112401909F
:10026000F081E02D64E08D5F9E4F099580917301D0
:100270008F5F809373011AC010930A0100930901E4
:100280008E010F5F1F4FA8016EE180E890E00E9491
:100290006E0210930C0100930B01E0910701F091A5
:1002A000080164E089E091E0099507C0909173012D
:1002B000809100019817D1F3C2CF8AB188668AB9BC
:1002C00087B1817F87B988B18E6088B980916800D5
:1002D00082608093680080916C008E6080936C00D7
:1002E0008091740187BD8091750188BD80917601F0
:1002F0008093B4008FE291E00E94F402FFCF282F98
:10030000FC018E2F821B861710F41192FACF0895EC
:10031000FC013081FB012081321307C0FC01918177
:10032000FB018181981301C0089580E008951F9218
:100330000F920FB60F9211242F933F934F935F9319
:100340006F937F938F939F93AF93BF93EF93FF939D
:100350008091C6008A3089F562E471E087E791E018
:100360000E948801882331F0809100018F5F809383
:1003700000011BC066E471E087E791E00E948801FC
:10038000882331F0809173018150809373010DC0F7
:10039000809177018B3229F48DE491E00E94F40280
:1003A00004C087E791E00E940703109272016EE19A
:1003B00087E791E00E947F010BC0E0917201F0E0BD
:1003C000E958FE4F8083809172018F5F80937201A4
:1003D000FF91EF91BF91AF919F918F917F916F911D
:1003E0005F914F913F912F910F900FBE0F901F90F3
:1003F0001895EF92FF920F931F93CF93DF931F9265
:10040000CDB7DEB7082F7C018E2D801B861760F4D8
:10041000F7011491812F69830E94ED02FFEFEF1A1B
:10042000FF0A69811A3081F70F90DF91CF911F91F8
:100430000F91FF90EF900895CF93DF93EC016EE062
:1004400086E790E00E94F901888199810E94F40278
:100450008EE191E0DF91CF910C94F402CF93DF9382
:10046000EC016DE088E690E00E94F9018CE691E0F5
:100470000E94F402888199810E94F4028AE691E048
:100480000E94F4028A819B810E94F4028EE691E030
:10049000DF91CF910C94F40284B18C6284B985B160
:1004A000846185B98CB583658CBD08958EBD0DB40E
:1004B00007FEFDCF08952A9885E00E94560280E04D
:1004C0000E9456022A9A8EB50895CF93C82F892F7D
:1004D0000E9456028C2FCF910C945602CF92DF923D
:1004E000FF920F931F93CF93DF9300D0CDB7DEB76A
:1004F0006C01062F2A9883E049835A830E94560292
:10050000C6010E9465024981F42EC42E5A81D52E5F
:100510001C2D1F19101758F480E00E9456028EB54A
:100520008F3F29F08EB5F60181936F01F1CF2A9AA2
:10053000812F0F900F90DF91CF911F910F91FF901E
:10054000DF90CF9008952A9886E00E9456022A9A5A
:100550000895EF92FF920F931F93CF93DF9300D0F4
:10056000CDB7DEB77C01162F49835A830E94A302C0
:100570002A9882E00E945602C7010E9465024981C2
:10058000042FE42E5A81F52E8E2D801B811730F416
:10059000F70181917F010E945602F6CF2A9A0E94AC
:1005A0005B0280FDFCCF0F900F90DF91CF911F91E8
:1005B0000F91FF90EF9008951092C50083E3809310
:1005C000C400E0ECF0E080818D7F808388E9809337
:1005D000C10086E08093C20008959091C00095FF0D
:1005E000FCCF8093C60008951F93CF93DF93EC0157
:1005F00010E0FE01E10FF11D8081882321F00E94AF
:10060000ED021F5FF6CFDF91CF911F9108951F93E9
:10061000CF93DF93EC0110E0FE01E10FF11D80812B
:10062000882329F080810E94ED021F5FF5CFDF91C2
:0A063000CF911F910895F894FFCFB9
:10063A00011C02550100002E02670157012E0260BB
:10064A0001650157726974696E672E2E2E200D0A94
:10065A00005772697474656E2E2E2E200D0A00459D
:10066A006E746572696E67206D61696E206C6F6F5A
:10067A0070004F4B0D004552524F520D006E65747B
:10068A00776F726B00310070617373776F726400F9
:10069A0073736964007061737300222C2200220D47
:0206AA000A0044
:00000001FF
