:100000000C948A010C94A7010C94A7010C94A701ED
:100010000C94A9010C94A7010C94A7010C94A701BE
:100020000C94A7010C94A7010C94A7010C9425042F
:100030000C946B040C94A7010C94A7010C94A701D9
:100040000C94A7010C94A7010C942A050C94A70109
:100050000C94A7010C94A7010C94A7010C94A70180
:100060000C94A7010C94A70141542B434950434CD5
:100070004F53453D0041542B434950535441525432
:100080003D22544350222C2268747470733A2F2FEF
:1000900075732D63656E7472616C312D696F746C4C
:1000A000616D702D726D2E636C6F756466756E6315
:1000B00074696F6E732E6E6574222C38300D0A00D1
:1000C00041542B5253540D0A0041542B4349505371
:1000D00045525645523D0041542B4349504D5558C9
:1000E0003D310D0A0041542B43495053454E443D88
:1000F0000041542B43574A41505F4355523D220023
:1001000041542B43574D4F44455F4355523D003CAE
:10011000703E4572726F722C20706C656173652041
:1001200074727920616761696E3C2F703E003C6893
:10013000313E5468616E6B20796F75213C2F6831B8
:100140003E3C703E506C6561736520666F6C6C6FF1
:10015000772074686520696E737472756374696F53
:100160006E732070726F7669646564207769746855
:1001700020796F757220746F7563686C616D702083
:10018000746F2066696E6973682073657475703C5E
:10019000703E003C68313E57656C636F6D65213C75
:1001A0002F68313E3C68343E506C65617365206554
:1001B0006E74657220796F7572206E6574776F72D8
:1001C0006B20696E666F726D6174696F6E20746FFB
:1001D00020626567696E207573696E6720796F7537
:1001E0007220746F756368206C616D70213C2F689C
:1001F000343E3C666F726D20616374696F6E3D22A0
:100200002F69223E3C696E70757420747970653D6B
:10021000227465787422206E616D653D2273222000
:10022000706C616365686F6C6465723D22535349FD
:1002300044223E3C696E70757420747970653D226D
:100240007465787422206E616D653D227022207085
:100250006C616365686F6C6465723D227061737375
:10026000776F7264223E3C696E7075742074797089
:10027000653D227375626D6974223E3C2F666F7214
:100280006D3E0D0A00383000436F6E74656E742D3C
:100290004C656E6774683A20300D0A00486F7374BD
:1002A0003A2075732D63656E7472616C312D696FC0
:1002B000746C616D702D726D2E636C6F75646675F4
:1002C0006E6374696F6E732E6E65740D0A0020483C
:1002D0005454502F312E300D0A0047455420005001
:1002E0004F5354200026623D0026673D0026723D94
:1002F000002F736574436F6C6F723F733D002F67FF
:100300006574436F6C6F723F733D00220D0A0022CB
:100310002C22000011241FBECFEFD4E0DEBFCDBFE2
:1003200011E0A0E0B1E0E2EAF2E102C005900D9236
:10033000AA3BB107D9F722E0AAEBB1E001C01D92B8
:10034000A234B207E1F70E945D020C944F090C94AD
:1003500000001F920F920FB60F9211248F933399C2
:1003600003C086E080930202109285001092840000
:1003700086B3866086BB80916F00826080936F0039
:1003800080916F008B7F80936F008F910F900FBED5
:100390000F901F9018951F93CF93DF939091BC00FF
:1003A000946A9093BC000E9448089091B900987F8D
:1003B000983031F083E691E00E941709C1E006C051
:1003C00086E30E944D080E944808C0E09091B90061
:1003D000987F983111F4CC2331F088E691E00E94A7
:1003E0001709CF5F05C082E00E944D080E944808AF
:1003F0009091B900987F983211F4CC2331F08DE6BA
:1004000091E00E941709CF5F07C09091BC00946AE9
:100410009093BC000E9448089091B900987F903159
:1004200011F4CC2331F082E791E00E941709CF5FED
:1004300005C087E30E944D080E9448089091B900CA
:10044000987F903411F4CC2359F08091B900887FC3
:100450000E942A098AE791E00E941709CF5F03C032
:100460000E945F08182F9091B900987F903511F481
:10047000CC2329F08EE791E00E94170903C00E9467
:100480006708D82F87E791E00E941709812F0E9403
:100490002A0987E791E00E9417098D2F0E942A09F7
:1004A00087E791E00E9417098091BC0084698093DE
:1004B000BC00DF91CF911F91089590E080E80FB6C6
:1004C000F89480936100909361000FBE84B58360BF
:1004D00084BD85B5846085BD84B5806884BD84B5E0
:1004E000806284BD809181008D608093810080E175
:1004F00097E290938900809388008091B000836098
:100500008093B0008091B10086608093B1008091AB
:10051000B00080628093B0000E94FF080E946F08C4
:100520000E943A08209A8AB184618AB984B1806CA9
:1005300084B93B98439A78948AEB91E090935D015B
:1005400080935C018DED91E090935F0180935E015B
:100550004AEB51E06EE180E490E00E9491088091C6
:10056000BA01882369F04DED51E06EE180E890E03A
:100570000E9491088BE08093D9018CE08093620106
:100580002FEF81EE94E0215080409040E1F700C0D1
:10059000000016E08091D9018C3040F58091D9019E
:1005A0008B3029F480918000806480938000E091FA
:1005B000D9012091D9011E9FF0011124E85EFE4F60
:1005C000129FC00111240190F081E02D64E0865E4D
:1005D0009E4F09958091D9018F5F8093D9019091A9
:1005E000D901809162019817D1F3D4CF1092D9012B
:1005F00081E08093620187E08093020287E690E0C9
:1006000090930301809302014AEB51E06EE180E494
:1006100090E00E94CC084DED51E06EE180E890E062
:100620000E94CC08809180008F7B8093800027E916
:1006300038E930938900209388002EE83BE5309319
:100640008B0020938A000E94CB01F894809168006F
:1006500082608093680080916C00886080936C0059
:10066000D99A78948AB188668AB906E0FF24F3940F
:100670009091D90180916201981700F58091020252
:100680008630E1F08091D9018430C0F4E091D90145
:100690002091D9010E9FF0011124E050FF4F029FDD
:1006A000C00111240190F081E02D64E08E5F9E4F27
:1006B00009958091D9018F5F8093D90180910202C1
:1006C000863009F0AEC0F8948091BC00846A8093B3
:1006D000BC000E9448088091B900887F883031F0C2
:1006E00083E691E00E94170911E006C086E30E94AC
:1006F0004D080E94480810E08091B900887F883139
:1007000011F4112331F088E691E00E9417091F5F70
:1007100005C082E00E944D080E9448088091B900FF
:10072000887F883211F4112331F08DE691E00E9428
:1007300017091F5F07C08091BC00846A8093BC00CA
:100740000E9448088091B900887F803111F41123FC
:1007500031F082E791E00E9417091F5F05C087E32F
:100760000E944D080E9448088091B900887F80341B
:1007700011F4112359F08091B900887F0E942A0951
:100780008AE791E00E9417091F5F03C00E945F087B
:10079000D82F8091B900887F803511F4112329F07A
:1007A0008EE791E00E94170903C00E946708C82FD6
:1007B00087E791E00E9417098D2F0E942A0987E799
:1007C00091E00E9417098C2F0E942A0987E791E087
:1007D0000E9417098091BC0084698093BC00F0924C
:1007E0000202C0FF08C08091FF01815F8093FF017A
:1007F0008091FF0188BDC2FF09C080910002815F26
:1008000080930002809100028093B400C4FF08C06E
:1008100080910102815F809301028091010287BD76
:1008200078948091FF0188BD809100028093B4008C
:100830008091010287BD1CCF282FFC018E2F821BC7
:10084000861710F41192FACF08951F920F920FB6E7
:100850000F9211242F933F934F935F936F937F9346
:100860008F939F93AF93BF93EF93FF93EFE6F0E0E7
:100870008081897F808387E08093020280E790E017
:1008800090930301809302018FEF91E0909309010F
:100890008093080190930F0180930E011092D9016B
:1008A00081E0809362011092D8016CE383E092E0D2
:1008B0000E941C04FF91EF91BF91AF919F918F9186
:1008C0007F916F915F914F913F912F910F900FBE4C
:1008D0000F901F9018951F920F920FB60F92112430
:1008E0002F933F934F935F936F937F938F939F9338
:1008F000AF93BF93EF93FF93EFE6F0E080818B7FA0
:10090000808387E08093020287E690E09093030162
:10091000809302011092D90181E0809362011092CC
:10092000D8016CE383E092E00E941C04FF91EF91F8
:10093000BF91AF919F918F917F916F915F914F91F7
:100940003F912F910F900FBE0F901F901895282F59
:10095000DB01FC018E2F821B841730F491918D9165
:100960009817C1F380E0089581E00895EF92FF9217
:100970000F931F93CF93DF933217A0F5E32FF0E08F
:10098000DC01AE0FBF1FCC91CF3319F0AC91A63272
:1009900039F53196E80FF91FA081A33729F0E081DE
:1009A000E037F1F4FA0101C0FB013D5F032F10E0D5
:1009B000C32FD0E0DC01AC0FBD1FFC900F2EF6E280
:1009C000EF2EF02DFE14C1F2FC90FF20A9F2FC9056
:1009D000DE01A01BB10BAE0FBF1FFC923F5FE8CF43
:1009E0003F5FCACFDF91CF911F910F91FF90EF90A2
:1009F0000895CF92DF92FF920F931F93CF93DF93CF
:100A00001F92CDB7DEB76C0100E00617C9F00F5F8B
:100A1000902F11E0812F961739F0880F182F110FA2
:100A2000110F180F9F5FF6CF69830E942A09F60104
:100A300091916F019053919FF00C11246981E5CF42
:100A40008F2D0F90DF91CF911F910F91FF90DF902D
:100A5000CF9008951F920F920FB60F9211242F93EB
:100A60003F934F935F936F937F938F939F93AF9336
:100A7000BF93EF93FF938091C6009091020296304E
:100A800009F486C18A3009F019C143E064E971E0D4
:100A900083E092E00E94A70490910202882311F162
:100AA0009430B1F028F49150923008F454C18AC0C7
:100AB000953009F087C080910201909103019093D5
:100AC0000B0180930A0190931101809310017AC069
:100AD0008091BA01811176C083E08093D90190930F
:100AE000620139C1913009F44FC028F0923091F180
:100AF0009330B1F030C146E062E871E083E092E00B
:100B00000E94A704882309F426C18091FE018F5F0B
:100B10008093FE018091D90181508093D9011BC13E
:100B200045E069E871E083E092E00E94A704882331
:100B300009F411C11092D90181E0809362016EE144
:100B40008AEB91E00E941C046EE18DED91E00E9421
:100B50001C0401C148E06FE871E083E092E00E946C
:100B6000A704882309F4F7C0809162018F5F809306
:100B7000620188E991E090933B0180933A01909360
:100B8000350180933401E7C046E062E871E083E01C
:100B900092E00E94A704811115C041E066E971E06E
:100BA00083E092E00E94A704882391F080913401B1
:100BB000909135018636910509F4CDC08859914050
:100BC00009F4C9C0809162018F5F80936201C3C044
:100BD00042E06AE971E083E092E00E94A704882382
:100BE00069F0809105028093DA018091060280937A
:100BF000DB01809107028093DC01ADC042E06DE92A
:100C000071E083E092E00E94A704882369F080915C
:100C1000050280933F0280910602809340028091FA
:100C200007028093410297C042E060EA71E083E0EE
:100C300092E00E94A704882369F0809105028093C6
:100C4000FB01809106028093FC0180910702809352
:100C5000FD0181C046E063EA71E083E092E00E941A
:100C6000A704882309F477C01092850010928400AD
:100C700086B3866086BB80916F00846080936F002E
:100C800080910201909103018736910509F063C0BC
:100C900063E08AED91E00E94F9048093FF0163E034
:100CA0008FE392E00E94F9048093000263E08BEFEF
:100CB00091E00E94F904809301024DC0913009F047
:100CC00052C0803209F059C09091BA01911155C0BB
:100CD0009091DD01911151C0809103028B3279F422
:100CE0002091080280E691E0209360019093330107
:100CF0008093320190933F0180933E012CC08091FC
:100D000003028F3241F580910402811103C088E60D
:100D100090E019C080910402893661F42CE34DED16
:100D200051E06AEB71E083E092E00E94B60489E64C
:100D300090E009C080910402863619F486E690E0BE
:100D400002C085E690E09093350180933401909342
:100D50003B0180933A011092D8016CE383E092E06A
:100D60000E941C0415C0923041F48E3331F48091FE
:100D700062018F5F809362010BC0E091D801F0E0C7
:100D8000ED5FFD4F80838091D8018F5F8093D80104
:100D9000FF91EF91BF91AF919F918F917F916F9153
:100DA0005F914F913F912F910F900FBE0F901F9029
:100DB0001895EF92FF920F931F93CF93DF931F929B
:100DC000CDB7DEB7082F7C018E2D801B861770F4FF
:100DD000F7011491112351F0812F69830E941009AA
:100DE000FFEFEF1AFF0A69811A3071F70F90DF9158
:100DF000CF911F910F91FF90EF900895CF93DF93C4
:100E0000EC016FE080E091E00E94D9068881998131
:100E10000E94170982EB91E00E94170910920202CA
:100E2000DF91CF910895CF93DF93EC016FE081EFD5
:100E300090E00E94D906888199810E94170964E098
:100E40008FE093E00E94D9068A819B810E94170956
:100E500064E08BE093E00E94D90683E08093020275
:100E6000DF91CF9108956EE087ED90E00C94D90664
:100E7000CF93DF93EC016EE089EC90E00E94D906FD
:100E8000888199810E94170988819981885B9140A6
:100E900049F085EB91E00E94170963E085E892E054
:100EA0000E94D90682EB91E0DF91CF910C94170953
:100EB00069E080EC90E00E94D9062FEF84E39CE08B
:100EC000215080409040E1F700C00000089581E08B
:100ED0008093020208956BE485E790E00E94D906B2
:100EE00085E0809302020895CF93DF93EC016CE0DC
:100EF00085EE90E00E94D9068A819B818736910514
:100F000011F486E61AC08037910511F48AE715C0FE
:100F1000888199810E94170985EB91E00E94170949
:100F20008A819B818836910511F482EF06C089364B
:100F3000910511F485E601C08FE10E942A0982EB38
:100F400091E00E94170982E080930202DF91CF9125
:100F50000895CF93DF93EC012A813B812736310539
:100F600081F465E08AED92E00E94D9066DE08EEF93
:100F700092E00E94D90687EB91E00E94170981E078
:100F800031C02037310509F043C066E08FED92E0B3
:100F90000E94D9066DE081EF92E00E94D90687EBAE
:100FA00091E00E94170981E00E942A0964E08DEE19
:100FB00092E00E94D906E881F98180810E942A0985
:100FC00064E089EE92E00E94D906E881F98181818E
:100FD0000E942A0964E085EE92E00E94D906E88129
:100FE000F98182810E942A096CE08EEC92E00E94D5
:100FF000D90662E38CE992E00E94D90664E188E8B0
:1010000092E00E94D90682EB91E00E94170916C077
:101010002836310521F462EF83E991E00DC02936CD
:10102000310521F465E68EE291E006C026363105F1
:1010300029F06FE18FE091E00E94D90682EB91E008
:10104000DF91CF910C941709CF93DF93EC016DE002
:1010500088E690E00E94D906888199810E9417094C
:1010600082EB91E00E94170984E080930202DF91F5
:10107000CF91089588E28093B800E9EBF0E0808199
:1010800081608083ECEBF0E0808180648083089550
:101090008091BC0087FFFCCF0895CF93DF931F9210
:1010A000CDB7DEB789830E94480889818093BB0051
:1010B00084E88093BC000F90DF91CF91089584EC79
:1010C0008093BC000E9448088091BB00089584E88A
:1010D0008093BC000E9448088091BB00089584B1B1
:1010E0008C6284B985B1846185B98CB583658CBD0A
:1010F00008958EBD0DB407FEFDCF08952A9885E0B2
:101100000E94790880E00E9479082A9A8EB5089595
:10111000CF93C82F892F0E9479088C2FCF910C94E0
:101120007908CF92DF92FF920F931F93CF93DF93B3
:1011300000D0CDB7DEB76C01062F2A9883E0498333
:101140005A830E947908C6010E9488084981F42EBA
:10115000C42E5A81D52E1C2D1F19101758F480E06B
:101160000E9479088EB58F3F29F08EB5F6018193E4
:101170006F01F1CF2A9A812F0F900F90DF91CF91BD
:101180001F910F91FF90DF90CF9008952A9886E0ED
:101190000E9479082A9A0895EF92FF920F931F9365
:1011A000CF93DF9300D0CDB7DEB77C01162F4983F4
:1011B0005A830E94C6082A9882E00E947908C701D3
:1011C0000E9488084981042FE42E5A81F52E8E2D25
:1011D000801B811730F4F70181917F010E9479080B
:1011E000F6CF2A9A0E947E0880FDFCCF0F900F90C8
:1011F000DF91CF911F910F91FF90EF900895109282
:10120000C50083E38093C400E0ECF0E080818D7F33
:10121000808388E98093C10086E08093C2000895AE
:101220009091C00095FFFCCF8093C60008951F9356
:10123000CF93DF93EC0110E0FE01E10FF11D8081FF
:10124000882321F00E9410091F5FF6CFDF91CF9114
:101250001F910895CF93C82F64E60E944309805DD3
:101260000E9410092AE08C2F622F0E944309C92F87
:101270000E94430980E3890F0E94100980E38C0FCC
:10128000CF910C941009991B79E004C0991F96170F
:1012900008F0961B881F7A95C9F780950895F894F1
:0212A000FFCF7E
:1012A2006B07B40100007407B4016700A907B40119
:1012B20067006707B4010000FE06AA0100003307B9
:1012C200B40100003807AC0100006707B401000058
:1012D2007407B4019801A907B40198012408B40164
:1012E2000000FE06AC0100003807B80100005807F4
:1012F200B4010000FE06AC0100001307AE01B0010C
:1013020030000145323300004532340000453235A9
:10131200000045323600007C00004532370045327D
:1013220038004552524F520D004641494C0D005370
:10133200454E44204F4B0D0078007220006720007C
:10134200622000434C4F5345440032003100730089
:0A13520070000D0A002C003030007E
:00000001FF
