:100000000C9443000C9460000C9460000C9460000D
:100010000C9462000C9460000C9460000C946000DE
:100020000C9460000C9460000C9460000C94970099
:100030000C9460000C9460000C9460000C946000C0
:100040000C9460000C9460000C9491010C9460007E
:100050000C9460000C9460000C9460000C946000A0
:100060000C9460000C94600041542B43574A41505B
:100070005F4355523D0041542B43574D4F44455F1C
:100080004355523D000011241FBECFEFD4E0DEBF28
:10009000CDBF11E0A0E0B1E0E6EEF5E002C00590D2
:1000A0000D92AA36B107D9F721E0AAE6B1E001C066
:1000B0001D92AC39B207E1F70E94CD000C94F10219
:1000C0000C9400001F920F920FB60F9211248F9381
:1000D000339908C080917B01815F80937B0180917F
:1000E0007B0187BD329908C080917C01815F80933C
:1000F0007C0180917C0188BD319909C080917D018E
:10010000815F80937D0180917D018093B400109286
:10011000850010928400B19A80916F008260809374
:100120006F008F910F900FBE0F901F9018951F9228
:100130000F920FB60F9211242F933F934F935F931B
:100140006F937F938F939F93AF93BF93EF93FF939F
:1001500082E191E00E94CA024BE751E063E080E057
:1001600090E00E947F0280E291E00E94CA02EFE6E6
:10017000F0E080818D7F8083FF91EF91BF91AF91FF
:100180009F918F917F916F915F914F913F912F91AF
:100190000F900FBE0F901F901895CF93DF93CDB7A0
:1001A000DEB7EC970FB6F894DEBF0FBECDBF90E080
:1001B00080E80FB6F89480936100909361000FBEC1
:1001C00084B5836084BD85B5846085BD84B5806851
:1001D00084BD84B5806284BD809181008D608093F0
:1001E000810087E998E99093890080938800809145
:1001F000B00083608093B0008091B10086608093EE
:10020000B1008091B00080628093B0000E94B20281
:100210000E9422024BE751E063E080E090E00E9400
:10022000440278948E01015E1F4FA8016EE180E4C4
:1002300090E00E9444028F8D8823C9F01093090139
:10024000009308010E511109A8016EE180E890E0C9
:100250000E94440210930B0100930A01E0910601F1
:10026000F091070164E088E091E0099504C08EE216
:1002700091E00E94CA0203E010E086E0F82EE091CF
:100280007A0180917A01FE9EF0011124E050FF4F27
:10029000F89EC00111240190F081E02D64E08E5F92
:1002A0009E4F099580917A018F5F80937A0101506A
:1002B00011090115110519F784E491E090930F01DC
:1002C00080930E01E0910C01F0910D0164E08EE04D
:1002D00091E009958AB188668AB987B1817F87B92B
:1002E00088B18E6088B980916800826080936800D0
:1002F00080916C008E6080936C0080917B0187BD43
:1003000080917C0188BD80917D018093B400FFCFF6
:10031000282FFC018E2F821B861710F41192FACF22
:1003200008951F920F920FB60F9211242F933F93AF
:100330004F935F936F937F938F939F93AF93BF93ED
:10034000EF93FF938091C6008A3069F48EE791E0C5
:100350000E94DD0210926A016EE170E08EE791E08A
:100360000E9488010BC0E0916A01F0E0E258FE4F64
:10037000808380916A018F5F80936A01FF91EF9182
:10038000BF91AF919F918F917F916F915F914F91AD
:100390003F912F910F900FBE0F901F901895EF92E5
:1003A000FF920F931F93CF93DF931F92CDB7DEB7CA
:1003B000082F7C018E2D801B861760F4F7011491A5
:1003C000812F69830E94C302FFEFEF1AFF0A698140
:1003D0001A3081F70F90DF91CF911F910F91FF900D
:1003E000EF900895CF93DF93EC016EE086E790E005
:1003F0000E94CF01888199810E94CA028DE191E01B
:10040000DF91CF910C94CA02CF93DF93EC016DE0A2
:1004100088E690E00E94CF0183E691E00E94CA0244
:10042000888199810E94CA0281E691E00E94CA02F5
:100430008A819B810E94CA0285E691E0DF91CF917B
:100440000C94CA0284B18C6284B985B1846185B987
:100450008CB583658CBD08958EBD0DB407FEFDCFB0
:1004600008952A9885E00E942C0280E00E942C02C8
:100470002A9A8EB50895CF93C82F892F0E942C02F7
:100480008C2FCF910C942C02CF92DF92FF920F937E
:100490001F93CF93DF9300D0CDB7DEB76C01062F4B
:1004A0002A9883E049835A830E942C02C6010E9445
:1004B0003B024981F42EC42E5A81D52E1C2D1F19C2
:1004C000101758F480E00E942C028EB58F3F29F05F
:1004D0008EB5F60181936F01F1CF2A9A812F0F908B
:1004E0000F90DF91CF911F910F91FF90DF90CF90F0
:1004F00008952A9886E00E942C022A9A0895EF9285
:10050000FF920F931F93CF93DF9300D0CDB7DEB749
:100510007C01162F49835A830E9479022A9882E02F
:100520000E942C02C7010E943B024981042FE42E45
:100530005A81F52E8E2D801B811730F4F7018191A1
:100540007F010E942C02F6CF2A9A0E94310280FD80
:10055000FCCF0F900F90DF91CF911F910F91FF90E3
:10056000EF9008951092C50083E38093C400E0ECFF
:10057000F0E080818D7F808388E98093C10086E0F0
:100580008093C20008959091C00095FFFCCF8093A6
:10059000C60008951F93CF93DF93EC0110E0FE0196
:1005A000E10FF11D8081882321F00E94C3021F5FAB
:1005B000F6CFDF91CF911F9108951F93CF93DF93D3
:1005C000EC0110E0FE01E10FF11D8081882329F08C
:1005D00080810E94C3021F5FF5CFDF91CF911F91F1
:0605E0000895F894FFCF1E
:1005E600F2014C01000004025E014E0104025701B3
:1005F6005C0157726974696E672E2E2E200D0A00F3
:100606005772697474656E2E2E2E200D0A00636F64
:10061600756C64206E6F742066696E6420737369EE
:10062600640D0A0075706461746564003100706160
:100636007373776F726400737369640070617373A8
:0A06460000222C2200220D0A000001
:00000001FF
