:100000000C948A010C94A7010C94A7010C94A701ED
:100010000C94A9010C94A7010C94A7010C94A701BE
:100020000C94A7010C94A7010C94A7010C942B0429
:100030000C9471040C94A7010C94A7010C94A701D3
:100040000C94A7010C94A7010C9430050C94A70103
:100050000C94A7010C94A7010C94A7010C94A70180
:100060000C94F2010C94A70141542B434950434C8A
:100070004F53453D0041542B434950535441525432
:100080003D22544350222C2268747470733A2F2FEF
:1000900075732D63656E7472616C312D696F746C4C
:1000A000616D702D726D2E636C6F756466756E6315
:1000B00074696F6E732E6E6574222C38300D0A00D1
:1000C00041542B5253540D0A0041542B4349505371
:1000D00045525645523D0041542B4349504D5558C9
:1000E0003D310D0A0041542B43495053454E443D88
:1000F0000041542B43574A41505F4355523D220023
:1001000041542B43574D4F44455F4355523D003CAE
:10011000703E4572726F722C20706C656173652041
:1001200074727920616761696E3C2F703E003C6893
:10013000313E5468616E6B20796F75213C2F6831B8
:100140003E3C703E506C6561736520666F6C6C6FF1
:10015000772074686520696E737472756374696F53
:100160006E732070726F7669646564207769746855
:1001700020796F757220746F7563686C616D702083
:10018000746F2066696E6973682073657475703C5E
:10019000703E003C68313E57656C636F6D65213C75
:1001A0002F68313E3C68343E506C65617365206554
:1001B0006E74657220796F7572206E6574776F72D8
:1001C0006B20696E666F726D6174696F6E20746FFB
:1001D00020626567696E207573696E6720796F7537
:1001E0007220746F756368206C616D70213C2F689C
:1001F000343E3C666F726D20616374696F6E3D22A0
:100200002F69223E3C696E70757420747970653D6B
:10021000227465787422206E616D653D2273222000
:10022000706C616365686F6C6465723D22535349FD
:1002300044223E3C696E70757420747970653D226D
:100240007465787422206E616D653D227022207085
:100250006C616365686F6C6465723D227061737375
:10026000776F7264223E3C696E7075742074797089
:10027000653D227375626D6974223E3C2F666F7214
:100280006D3E0D0A00383000436F6E74656E742D3C
:100290004C656E6774683A20300D0A00486F7374BD
:1002A0003A2075732D63656E7472616C312D696FC0
:1002B000746C616D702D726D2E636C6F75646675F4
:1002C0006E6374696F6E732E6E65740D0A0020483C
:1002D0005454502F312E300D0A0047455420005001
:1002E0004F5354200026623D0026673D0026723D94
:1002F000002F736574436F6C6F723F733D002F67FF
:100300006574436F6C6F723F733D00220D0A0022CB
:100310002C22000011241FBECFEFD4E0DEBFCDBFE2
:1003200011E0A0E0B1E0EEEDF2E102C005900D9227
:10033000AC39B107D9F722E0ACE9B1E001C01D92B8
:10034000A233B207E1F70E9418030C946D090C94D4
:1003500000001F920F920FB60F9211242F933F931C
:100360004F935F936F937F938F939F93AF93BF93BD
:10037000EF93FF9386E08093F201339911C08BE1F4
:100380008093EB0182E08093EC0181E08093ED01AA
:100390008093EE018093EF011092F0010E944E08CD
:1003A000109285001092840086B3866086BB80918F
:1003B0006F00826080936F0080916F008B7F8093CD
:1003C0006F00FF91EF91BF91AF919F918F917F91BE
:1003D0006F915F914F913F912F910F900FBE0F90B2
:1003E0001F9018951F920F920FB60F9211242F9302
:1003F0003F934F935F936F937F938F939F93AF93AD
:10040000BF93EF93FF938091B900887F803309F405
:10041000A8C0B0F4883109F471C058F4883011F1E3
:10042000803109F0AEC02F9A8BEE91E00E945A08FD
:10043000A9C0803209F484C0883209F465C0A1C023
:10044000883409F47DC048F48833B9F0803409F069
:1004500098C05C9AE091F10120C0803581F0883528
:1004600041F18FC08091BC008F7D8093BC008BEEEA
:1004700091E00E9482085A9A85C02F9A61C05C9AC6
:10048000E091F1018091BB00AE2FB0E0A551BE4FCD
:1004900013968C93EF5FE093F101F0E0E551FE4F8E
:1004A000848181116FC08091BC008F7B8093BC00E0
:1004B00069C02E9A8091BB00E091F101F0E0E55116
:1004C000FE4F83838091EB018B31D1F58091EF0159
:1004D00080FF05C09091E801915F9093E80181FF52
:1004E00005C09091E901915F9093E90182FF28C0D6
:1004F0008091EA01815F8093EA0122C05C9A8BEED1
:1005000091E00E9478083EC05C9A8091ED018823BA
:1005100019F00E944E0836C0E091F101E33080F4FA
:10052000F0E0E551FE4F848181110AC08BEE91E02D
:100530000E946B088091F1018F5F8093F10122C0CE
:100540001092EB011092EC011092ED011092EE016D
:100550001092EF011092F0011092F1010E945408E4
:1005600011C01092EB011092EC011092ED0110926B
:10057000EE011092EF011092F0011092F1010E9431
:1005800054085A988091BC0080688093BC00FF9109
:10059000EF91BF91AF919F918F917F916F915F91FB
:1005A0004F913F912F910F900FBE0F901F90189574
:1005B000CF93CBE1C093EB0187E28093EC011092E3
:1005C000ED0181E08093EE018093EF018093F001D3
:1005D0000E944E088091EB018111FFCFC093EB0187
:1005E0008EE28093EC011092ED0184E08093EE01A5
:1005F0008093EF018093F0010E944E088091EB01FF
:100600008111FFCFC093EB0180E28093EC01109247
:10061000ED0184E18093EE018093EF018093F0017E
:100620000E944E088091EB018111FFCFCF91089578
:1006300090E080E80FB6F894809361009093610099
:100640000FBE84B5836084BD85B5846085BD84B5E7
:10065000806884BD84B5806284BD809181008D6096
:100660008093810080E197E29093890080938800D5
:100670008091B00083608093B0008091B10086606B
:100680008093B1008091B00080628093B0000E949E
:100690001D090E948D080E944008209A8AB1846139
:1006A0008AB984B1806C84B93B98439A78948CE978
:1006B00091E090935D0180935C0186EC91E09093D2
:1006C0005F0180935E014CE951E06EE180E490E0CF
:1006D0000E94AF0880919C01882369F046EC51E0AC
:1006E0006EE180E890E00E94AF088BE08093C20149
:1006F0008CE0809362012FEF81EE94E021508040E6
:100700009040E1F700C00000C6E08091C2018C304B
:1007100040F58091C2018B3029F480918000806483
:1007200080938000E091C2018091C201CE9FF001D0
:100730001124E85EFE4FC89FC00111240190F08192
:10074000E02D64E0865E9E4F09958091C2018F5F27
:100750008093C2019091C201809162019817D1F3F8
:10076000D4CF1092C20181E08093620187E0809330
:10077000F20187E690E090930301809302014CE937
:1007800051E06EE180E490E00E94EA0846EC51E01E
:100790006EE180E890E00E94EA08809180008F7B03
:1007A0008093800087E998E990938900809388007E
:1007B0008EE89BE590938B0080938A000E94D8027C
:1007C000F8948091680082608093680080916C004A
:1007D000886080936C00D99A78948AB188668AB9C7
:1007E000C6E09091C20180916201981700F5809156
:1007F000F2018630E1F08091C2018430C0F4E091D2
:10080000C2018091C201CE9FF0011124E050FF4F40
:10081000C89FC00111240190F081E02D64E08E5F3B
:100820009E4F09958091C2018F5F8093C201809194
:10083000E80188BD8091E9018093B4008091EA01CC
:1008400087BDCFCF282FFC018E2F821B861710F477
:100850001192FACF08951F920F920FB60F921124A2
:100860002F933F934F935F936F937F938F939F93B8
:10087000AF93BF93EF93FF93EFE6F0E08081897F22
:10088000808387E08093F20180E790E090930301FA
:100890008093020188EE91E0909309018093080112
:1008A00090930F0180930E011092C20181E080931A
:1008B00062011092C1016CE383EF91E00E94220477
:1008C000FF91EF91BF91AF919F918F917F916F9128
:1008D0005F914F913F912F910F900FBE0F901F90FE
:1008E00018951F920F920FB60F9211242F933F93DA
:1008F0004F935F936F937F938F939F93AF93BF9328
:10090000EF93FF93EFE6F0E080818B7F808387E0B9
:100910008093F20187E690E09093030180930201B7
:100920001092C20181E0809362011092C1016CE3D8
:1009300083EF91E00E942204FF91EF91BF91AF916C
:100940009F918F917F916F915F914F913F912F91E7
:100950000F900FBE0F901F901895282FDB01FC0100
:100960008E2F821B841730F491918D919817C1F3CB
:1009700080E0089581E00895EF92FF920F931F9316
:10098000CF93DF933217A0F5E32FF0E0DC01AE0F39
:10099000BF1FCC91CF3319F0AC91A63239F5319607
:1009A000E80FF91FA081A33729F0E081E037F1F4C7
:1009B000FA0101C0FB013D5F032F10E0C32FD0E01F
:1009C000DC01AC0FBD1FFC900F2EF6E2EF2EF02DD8
:1009D000FE14C1F2FC90FF20A9F2FC90DE01A01BE6
:1009E000B10BAE0FBF1FFC923F5FE8CF3F5FCACF96
:1009F000DF91CF911F910F91FF90EF900895CF92CB
:100A0000DF92FF920F931F93CF93DF931F92CDB787
:100A1000DEB76C0100E00617C9F00F5F902F11E000
:100A2000812F961739F0880F182F110F110F180FFB
:100A30009F5FF6CF69830E944809F60191916F018B
:100A40009053919FF00C11246981E5CF8F2D0F9069
:100A5000DF91CF911F910F91FF90DF90CF9008957C
:100A60001F920F920FB60F9211242F933F934F9323
:100A70005F936F937F938F939F93AF93BF93EF9306
:100A8000FF938091C6009091F201963009F486C1DF
:100A90008A3009F019C143E065E771E083EF91E026
:100AA0000E94AD049091F201882311F19430B1F0CD
:100AB00028F49150923008F454C18AC0953009F05E
:100AC00087C0809102019091030190930B01809364
:100AD0000A0190931101809310017AC080919C01CA
:100AE000811176C083E08093C2019093620139C185
:100AF000913009F44FC028F0923091F19330B1F069
:100B000030C146E063E671E083EF91E00E94AD04FE
:100B1000882309F426C18091E7018F5F8093E70164
:100B20008091C20181508093C2011BC145E06AE6F9
:100B300071E083EF91E00E94AD04882309F411C1B4
:100B40001092C20181E0809362016EE18CE991E034
:100B50000E9422046EE186EC91E00E94220401C111
:100B600048E060E771E083EF91E00E94AD048823E4
:100B700009F4F7C0809162018F5F8093620189E779
:100B800091E090933B0180933A01909335018093DB
:100B90003401E7C046E063E671E083EF91E00E9434
:100BA000AD04811115C041E067E771E083EF91E08A
:100BB0000E94AD04882391F0809134019091350119
:100BC0008636910509F4CDC08957914009F4C9C012
:100BD000809162018F5F80936201C3C042E06BE746
:100BE00071E083EF91E00E94AD04882369F0809169
:100BF000F5018093C3018091F6018093C401809137
:100C0000F7018093C501ADC042E06EE771E083EF6C
:100C100091E00E94AD04882369F08091F5018093F2
:100C20002F028091F601809330028091F70180932A
:100C3000310297C042E061E871E083EF91E00E94E9
:100C4000AD04882369F08091F5018093E4018091DF
:100C5000F6018093E5018091F7018093E60181C060
:100C600046E064E871E083EF91E00E94AD048823E0
:100C700009F477C0109285001092840086B38660D4
:100C800086BB80916F00846080936F008091020129
:100C9000909103018736910509F063C063E083EC0E
:100CA00091E00E94FF048093E80163E08FE292E00C
:100CB0000E94FF048093E90163E084EE91E00E94CA
:100CC000FF048093EA014DC0913009F052C0803298
:100CD00009F059C090919C01911155C09091C601A5
:100CE000911151C08091F3018B3279F42091F80178
:100CF00080E691E02093600190933301809332016C
:100D000090933F0180933E012CC08091F3018F327C
:100D100041F58091F401811103C088E690E019C08B
:100D20008091F401893661F42CE346EC51E06CE9E2
:100D300071E083EF91E00E94BC0489E690E009C075
:100D40008091F401863619F486E690E002C085E6CB
:100D500090E0909335018093340190933B01809310
:100D60003A011092C1016CE383EF91E00E942204EA
:100D700015C0923041F48E3331F4809162018F5F5F
:100D8000809362010BC0E091C101F0E0ED50FE4F95
:100D900080838091C1018F5F8093C101FF91EF91AA
:100DA000BF91AF919F918F917F916F915F914F9183
:100DB0003F912F910F900FBE0F901F901895EF92BB
:100DC000FF920F931F93CF93DF931F92CDB7DEB7A0
:100DD000082F7C018E2D801B861770F4F70114916B
:100DE000112351F0812F69830E942E09FFEFEF1A22
:100DF000FF0A69811A3071F70F90DF91CF911F912F
:100E00000F91FF90EF900895CF93DF93EC016FE087
:100E100080E091E00E94DF06888199810E94350977
:100E200083E991E00E9435091092F201DF91CF91A0
:100E30000895CF93DF93EC016FE081EF90E00E9483
:100E4000DF06888199810E94350964E08FE093E094
:100E50000E94DF068A819B810E94350964E08BE055
:100E600093E00E94DF0683E08093F201DF91CF914F
:100E700008956EE087ED90E00C94DF06CF93DF934A
:100E8000EC016EE089EC90E00E94DF068881998198
:100E90000E943509888199818959914049F086E9F4
:100EA00091E00E94350963E085E892E00E94DF0648
:100EB00083E991E0DF91CF910C94350969E080ECF2
:100EC00090E00E94DF062FEF84E39CE021508040F9
:100ED0009040E1F700C00000089581E08093F201A6
:100EE00008956BE485E790E00E94DF0685E080933B
:100EF000F2010895CF93DF93EC016CE085EE90E072
:100F00000E94DF068A819B818736910511F486E66F
:100F10001AC08037910511F48AE715C0888199813C
:100F20000E94350986E991E00E9435098A819B81FA
:100F30008836910511F482EF06C08936910511F4C7
:100F400085E601C08FE10E94480983E991E00E9493
:100F5000350982E08093F201DF91CF910895CF931C
:100F6000DF93EC012A813B812736310581F465E06E
:100F70008AED92E00E94DF066DE08EEF92E00E9423
:100F8000DF0688E991E00E94350981E031C0203711
:100F9000310509F043C066E08FED92E00E94DF0664
:100FA0006DE081EF92E00E94DF0688E991E00E9407
:100FB000350981E00E94480964E08DEE92E00E94CC
:100FC000DF06E881F98180810E94480964E089EEAA
:100FD00092E00E94DF06E881F98181810E94480940
:100FE00064E085EE92E00E94DF06E881F98182816B
:100FF0000E9448096CE08EEC92E00E94DF0662E3FA
:101000008CE992E00E94DF0664E188E892E00E94A9
:10101000DF0683E991E00E94350916C028363105C4
:1010200021F462EF83E991E00DC02936310521F406
:1010300065E68EE291E006C02636310529F06FE1C3
:101040008FE091E00E94DF0683E991E0DF91CF918C
:101050000C943509CF93DF93EC016DE088E690E0C6
:101060000E94DF06888199810E94350983E991E019
:101070000E94350984E08093F201DF91CF910895B9
:1010800084E08093B800E9EBF0E0808181608083A8
:10109000ECEBF0E08081816480830895ECEBF0E07C
:1010A0008081846A80830895ECEBF0E0808184691C
:1010B00080830895DC012C91220FEBEBF0E020837C
:1010C000208112968C91280F2083ECEBF0E0808138
:1010D000846880830895FC012681E20FF11D8381DD
:1010E0008093BB00ECEBF0E08081846880830895FE
:1010F000FC0181818093BB00ECEBF0E0808184688F
:1011000080830895FC018081880F8093BB00ECEB05
:10111000F0E0808184688083089584B18C6284B912
:1011200085B1846185B98CB583658CBD08958EBD0C
:101130000DB407FEFDCF08952A9885E00E94970818
:1011400080E00E9497082A9A8EB50895CF93C82F01
:10115000892F0E9497088C2FCF910C949708CF92DB
:10116000DF92FF920F931F93CF93DF9300D0CDB701
:10117000DEB76C01062F2A9883E049835A830E94C8
:101180009708C6010E94A6084981F42EC42E5A81F0
:10119000D52E1C2D1F19101758F480E00E949708B7
:1011A0008EB58F3F29F08EB5F60181936F01F1CF97
:1011B0002A9A812F0F900F90DF91CF911F910F915D
:1011C000FF90DF90CF9008952A9886E00E949708BC
:1011D0002A9A0895EF92FF920F931F93CF93DF9374
:1011E00000D0CDB7DEB77C01162F49835A830E9409
:1011F000E4082A9882E00E949708C7010E94A60886
:101200004981042FE42E5A81F52E8E2D801B8117E3
:1012100030F4F70181917F010E949708F6CF2A9A56
:101220000E949C0880FDFCCF0F900F90DF91CF9122
:101230001F910F91FF90EF9008951092C50083E3E6
:101240008093C400E0ECF0E080818D7F808388E9AA
:101250008093C10086E08093C20008959091C00001
:1012600095FFFCCF8093C60008951F93CF93DF9323
:10127000EC0110E0FE01E10FF11D8081882321F0D7
:101280000E942E091F5FF6CFDF91CF911F91089525
:10129000CF93C82F64E60E946109805D0E942E09E9
:1012A0002AE08C2F622F0E946109C92F0E946109D8
:1012B00080E3890F0E942E0980E38C0FCF910C945C
:1012C0002E09991B79E004C0991F961708F0961B08
:0E12D000881F7A95C9F780950895F894FFCF8E
:1012DE007107950100007A0795016700AF07950128
:1012EE0067006D079501000004078B0100003907A8
:1012FE00950100003E078D0100006D07950100006D
:10130E007A0795017901AF07950179012A089501B0
:10131E00000004078D0100003E07990100005E07E2
:10132E009501000004078D01000019078F0191013E
:10133E003000014552524F520D004641494C0D00AE
:10134E0053454E44204F4B0D00780072200067200D
:10135E0000622000434C4F5345440032003100736D
:0C136E000070000D0A002C003030000060
:00000001FF
